:020000040003F7
:10000000B8990020DD030300E5030300E7030300C4
:10001000E9030300EB030300ED030300000000000D
:10002000000000000000000000000000EF030300DB
:10003000F103030000000000F3030300F5030300D5
:1000400081410300F7030300F54A030079430300ED
:10005000F7030300F7030300313F030031420300BD
:10006000F7030300F7030300F7030300F70303009C
:10007000F7030300F9410300F7030300F70303004C
:10008000014B030021420300F7030300F7030300C1
:10009000F7030300F7030300C5470300F70303005A
:1000A000F7030300F7030300F7030300F70303005C
:1000B000D9410300F7030300000000000000000026
:1000C000F7030300E9410300F7030300F70303000C
:1000D000F7030300F7030300F70303000000000029
:1000E0000000000000000000000000000000000010
:1000F0000000000000000000000000000000000000
:1001000000000000000000000000000000000000EF
:1001100000000000000000000000000000000000DF
:1001200000000000000000000000000000000000CF
:1001300000000000000000000000000000000000BF
:1001400000000000000000000000000000000000AF
:10015000000000000000000000000000000000009F
:10016000000000000000000000000000000000008F
:10017000000000000000000000000000000000007F
:10018000000000000000000000000000000000006F
:10019000000000000000000000000000000000005F
:1001A000000000000000000000000000000000004F
:1001B000000000000000000000000000000000003F
:1001C000000000000000000000000000000000002F
:1001D000000000000000000000000000000000001F
:1001E000000000000000000000000000000000000F
:1001F00000000000000000000000000000000000FF
:10020000DFF80CD001F0BCFD0048004771BF0300CF
:10021000B899002000B583B002900091019244F299
:10022000010071466A4605F09FF803B000BD00006A
:1002300030B450E8012F93B2C48923448489A34287
:1002400028BF1B1B0489A34202BFBFF32F8F0020CE
:1002500007E0C3EA020340E80134002CE9D14FF083
:1002600001000A6030BC704750E8012FC2EA024228
:1002700040E801210029F7D1704730B450E8022F3F
:100280001FFAA2F3C488A34202BFBFF32F8F00203E
:100290000DE0C48923448489A34228BF1B1BC2EA02
:1002A000034340E80234002CE8D14FF001000A601B
:1002B00030BC704750E8022FC2EA224240E80221D7
:1002C0000029F7D17047034653E8022FD988B2EBD3
:1002D000324F4FF0000017BF92B241EA014142EAAB
:1002E000014104E05A68B2EB324F08BF012043E8F5
:1002F0000212002AE8D1704730B4044654E8000FD7
:100300000D4644E80053002BF8D1156030BC70470F
:1003100030B4044654E8000F40EA010544E80053B5
:10032000002BF7D1156030BC704730B4044654E858
:10033000000F00EA010544E80053002BF7D11560D7
:1003400030BC704730B4044654E8000F80EA010521
:1003500044E80053002BF7D1156030BC704730B42F
:10036000044654E8000F00EB010544E80053002B5D
:10037000F7D1156030BC704730B4044654E8000F24
:10038000A0EB010544E80053002BF7D1156030BC09
:10039000704770B404464FF0000054E8006F0D68D9
:1003A000AE4207BF44E80023012044E800630E602A
:1003B000002B1CBF0020F0E770BC704730B404462F
:1003C00054E8000F88422CBF451A054644E8005304
:1003D000002BF5D1156030BC7047000006488047FF
:1003E00006480047FEE7FEE7FEE7FEE7FEE7FEE71A
:1003F000FEE7FEE7FEE7FEE7C94703000102030050
:1004000070B491E87800B2E802105B1854EB0C0469
:10041000B2E802104D4156EB0C0680E878008041AE
:10042000013070BC704770B491E87800B2E80210F7
:100430005B1A74EB0C04B2E802108D4176EB0C06EB
:1004400080E878008041404270BC70472DE9F00799
:1004500091E8F807B2E802105B1854EB0C04B2E81C
:1004600002104D4156EB0C06B2E802104F4158EB1A
:100470000C08B2E8021059EB01095AEB0C0A80E8AB
:10048000F80780410130BDE8F00770472DE9F0071B
:1004900091E8F807B2E802105B1A74EB0C04B2E8BA
:1004A00002108D4176EB0C06B2E802108F4178EB1A
:1004B0000C08B2E8021079EB01097AEB0C0A80E82B
:1004C000F80780414042BDE8F00770472DE9F0078A
:1004D000524290E87800B1E880071740DB1918EA2B
:1004E000020854EB080419EA020955EB09051AEA57
:1004F000020A56EB0A0678C090E87800B1E8800757
:1005000017407B4118EA020854EB080419EA020973
:1005100055EB09051AEA020A56EB0A0678C0804133
:100520000130BDE8F00770472DE9F007524290E82E
:100530007800B1E880071740DB1B18EA020874EB6B
:10054000080419EA020975EB09051AEA020A76EBB2
:100550000A0678C090E87800B1E880071740BB41F0
:1005600018EA020874EB080419EA020975EB090598
:100570001AEA020A76EB0A0678C080414042BDE8DA
:10058000F007704790E8300091E8C000A31B1340CB
:10059000E41AF618EB1B1340ED1AFF1830C0C0C167
:1005A0007047F0B55242FFF7EDFFFFF7EBFFFFF7A3
:1005B000E9FFFFF7E7FFF0BD2DE9F0073AC916683C
:1005C000A1FB069A4FF0000CE3FB06AC4FF00007CE
:1005D000E4FB06C74FF00008E5FB067840F8049BF3
:1005E00056684FF00009E1FB06A91CEB090C4FF01F
:1005F000000949EB0909E3FB06C917EB09074FF0AE
:10060000000949EB0909E4FB067918EB09084FF0EA
:10061000000949EB0909E5FB068940F804AB966837
:100620004FF0000AE1FB06CA17EB0A074FF0000A79
:100630004AEB0A0AE3FB067A18EB0A084FF0000AB5
:100640004AEB0A0AE4FB068A19EB0A094FF0000A92
:100650004AEB0A0AE5FB069A40F804CBD6684FF04D
:10066000000CE1FB067C18EB0C084FF0000C4CEB87
:100670000C0CE3FB068C19EB0C094FF0000C4CEB57
:100680000C0CE4FB069C1AEB0C0A4FF0000C4CEB34
:100690000C0CE5FB06AC80E88017BDE8F00770475E
:1006A0000A462DE9F04F41EC140A92EC080A1EC9E3
:1006B00010EE100AA1FB00784FF00009E2FB008960
:1006C0004FF0000AE3FB009A4FF0000BE4FB00AB95
:1006D00012EE100A4FF0000CE1FB00BC4FF0000ED0
:1006E000E2FB00CE4FF00005E3FB00E54FF0000613
:1006F000E4FB005605EE107A10EE900A4FF000076A
:10070000E1FB008719EB07094FF0000747EB0707EC
:10071000E2FB00971AEB070A4FF0000747EB0707C9
:10072000E3FB00A71BEB070B4FF0000747EB0707A6
:10073000E4FB00B712EE900A1CEB070C4FF0000729
:1007400047EB0707E1FB00C71EEB070E4FF0000762
:1007500047EB0707E2FB00E7ED194FF0000747EB17
:100760000707E3FB0057F6194FF0000747EB0707B1
:10077000E4FB006705EE908A11EE100A4FF00008C6
:10078000E1FB00981AEB080A4FF0000848EB080854
:10079000E2FB00A81BEB080B4FF0000848EB080831
:1007A000E3FB00B81CEB080C4FF0000848EB08080E
:1007B000E4FB00C813EE100A1EEB080E4FF0000811
:1007C00048EB0808E1FB00E815EB08054FF00008CE
:1007D00048EB0808E2FB005816EB08064FF000084B
:1007E00048EB0808E3FB006817EB08074FF0000828
:1007F00048EB0808E4FB007806EE109A11EE900A28
:100800004FF00009E1FB00A91BEB090B4FF00009B9
:1008100049EB0909E2FB00B91CEB090C4FF0000998
:1008200049EB0909E3FB00C91EEB090E4FF0000973
:1008300049EB0909E4FB00E913EE900A15EB090501
:100840004FF0000949EB0909E1FB005916EB0906D5
:100850004FF0000949EB0909E2FB006917EB0907B2
:100860004FF0000949EB0909E3FB007918EB09088F
:100870004FF0000949EB0909E4FB008906EE90AA54
:1008800014EE901A01F110011EC910EE100A4FF07B
:10089000000AE1FB00BA1CEB0A0C4FF0000A4AEB1D
:1008A0000A0AE2FB00CA1EEB0A0E4FF0000A4AEBEE
:1008B0000A0AE3FB00EA15EB0A054FF0000A4AEBCF
:1008C0000A0AE4FB005A12EE100A16EB0A064FF071
:1008D000000A4AEB0A0AE1FB006A17EB0A074FF02D
:1008E000000A4AEB0A0AE2FB007A18EB0A084FF00A
:1008F000000A4AEB0A0AE3FB008A19EB0A094FF0E7
:10090000000A4AEB0A0AE4FB009A07EE10BA10EE5E
:10091000900A4FF0000BE1FB00CB1EEB0B0E4FF0EB
:10092000000B4BEB0B0BE2FB00EB15EB0B054FF059
:10093000000B4BEB0B0BE3FB005B16EB0B064FF0D6
:10094000000B4BEB0B0BE4FB006B12EE900A17EB6A
:100950000B074FF0000B4BEB0B0BE1FB007B18EB95
:100960000B084FF0000B4BEB0B0BE2FB008B19EB72
:100970000B094FF0000B4BEB0B0BE3FB009B1AEB4F
:100980000B0A4FF0000B4BEB0B0BE4FB00AB07EE3D
:1009900090CA11EE100A4FF0000CE1FB00EC15EBD1
:1009A0000C054FF0000C4CEB0C0CE2FB005C16EB62
:1009B0000C064FF0000C4CEB0C0CE3FB006C17EB3F
:1009C0000C074FF0000C4CEB0C0CE4FB007C13EE1E
:1009D000100A18EB0C084FF0000C4CEB0C0CE1FB70
:1009E000008C19EB0C094FF0000C4CEB0C0CE2FBEB
:1009F000009C1AEB0C0A4FF0000C4CEB0C0CE3FBC8
:100A000000AC1BEB0C0B4FF0000C4CEB0C0CE4FBA4
:100A100000BC08EE10EA11EE900A4FF0000EE1FB68
:100A2000005E16EB0E064FF0000E4EEB0E0EE2FBD4
:100A3000006E17EB0E074FF0000E4EEB0E0EE3FBB1
:100A4000007E18EB0E084FF0000E4EEB0E0EE4FB8E
:100A5000008E13EE900A19EB0E094FF0000E4EEBCC
:100A60000E0EE1FB009E1AEB0E0A4FF0000E4EEB4D
:100A70000E0EE2FB00AE1BEB0E0B4FF0000E4EEB2A
:100A80000E0EE3FB00BE1CEB0E0C4FF0000E4EEB07
:100A90000E0EE4FB00CE14EE100AA0EC075A80E81C
:100AA000E05FBDE8F08F00BF30B44FF0000310F8F6
:100AB000014B11F8015B013A84EA050443EA04039F
:100AC000F5D1A3F101034FEAD37030BC70474FF06A
:100AD000000310F8012B013943EA0203F9D1A3F115
:100AE00001034FEAD370704711F8013B00F8013B56
:100AF000013AF9D17047002200F8012B0139FBD1EE
:100B0000704700BF2DE9F00791E8F807B2E802103E
:100B10005B1854EB0C04B2E802104D4156EB0C0686
:100B2000B2E802104F4158EB0C08B2E8021059EB42
:100B300001095AEB0C0A8941B3F1FF3374F1FF3418
:100B400075F1FF3576F1000677F1000778F10008BE
:100B500079F101097AF1FF3A51F100014A425B183B
:100B60004C414D4156F1000657F1000758F100087D
:100B700059EB02095AEB010A80E8F807BDE8F007D3
:100B800070472DE9F00791E8F807B2E802105B1A08
:100B900074EB0C04B2E802108D4176EB0C06B2E85F
:100BA00002108F4178EB0C08B2E8021079EB0109D2
:100BB0007AEB0C0A89414A425B184C414D4156F18F
:100BC000000657F1000758F1000859EB02095AEBEB
:100BD000010A80E8F807BDE8F00770470A462DE9EA
:100BE000F04F41EC140A92EC080A1EC910EE100AEC
:100BF000A1FB00784FF00009E2FB00894FF0000AEA
:100C0000E3FB009A4FF0000BE4FB00AB12EE100A7E
:100C10004FF0000CE1FB00BC4FF0000EE2FB00CEF9
:100C20004FF00005E3FB00E54FF00006E4FB005643
:100C300005EE107A10EE900A4FF00007E1FB0087F6
:100C400019EB07094FF0000747EB0707E2FB009796
:100C50001AEB070A4FF0000747EB0707E3FB00A773
:100C60001BEB070B4FF0000747EB0707E4FB00B750
:100C700012EE900A1CEB070C4FF0000747EB07073A
:100C8000E1FB00C71EEB070E4FF0000747EB07071D
:100C9000E2FB00E7ED194FF0000747EB0707E3FB26
:100CA0000057F6194FF0000747EB0707E4FB006712
:100CB00005EE908A11EE100A4FF00008E1FB009853
:100CC0001AEB080A4FF0000848EB0808E2FB00A8FE
:100CD0001BEB080B4FF0000848EB0808E3FB00B8DB
:100CE0001CEB080C4FF0000848EB0808E4FB00C8B8
:100CF00013EE100A1EEB080E4FF0000848EB080830
:100D0000E1FB00E815EB08054FF0000848EB080888
:100D1000E2FB005816EB08064FF0000848EB080805
:100D2000E3FB006817EB08074FF0000848EB0808E2
:100D3000E4FB007806EE109A11EE900A4FF00009DD
:100D4000E1FB00A91BEB090B4FF0000949EB090976
:100D5000E2FB00B91CEB090C4FF0000949EB090953
:100D6000E3FB00C91EEB090E4FF0000949EB09092E
:100D7000E4FB00E913EE900A15EB09054FF00009BA
:100D800049EB0909E1FB005916EB09064FF0000990
:100D900049EB0909E2FB006917EB09074FF000096D
:100DA00049EB0909E3FB007918EB09084FF000094A
:100DB00049EB0909E4FB008906EE90AA14EE901AAB
:100DC00001F110011EC910EE100A4FF0000AE1FBFC
:100DD00000BA1CEB0A0C4FF0000A4AEB0A0AE2FBCD
:100DE00000CA1EEB0A0E4FF0000A4AEB0A0AE3FBA8
:100DF00000EA15EB0A054FF0000A4AEB0A0AE4FB89
:100E0000005A12EE100A16EB0A064FF0000A4AEBDF
:100E10000A0AE1FB006A17EB0A074FF0000A4AEBE7
:100E20000A0AE2FB007A18EB0A084FF0000A4AEBC4
:100E30000A0AE3FB008A19EB0A094FF0000A4AEBA1
:100E40000A0AE4FB009A07EE10BA10EE900A4FF07F
:100E5000000BE1FB00CB1EEB0B0E4FF0000B4BEB3E
:100E60000B0BE2FB00EB15EB0B054FF0000B4BEB14
:100E70000B0BE3FB005B16EB0B064FF0000B4BEB91
:100E80000B0BE4FB006B12EE900A17EB0B074FF015
:100E9000000B4BEB0B0BE1FB007B18EB0B084FF04F
:100EA000000B4BEB0B0BE2FB008B19EB0B094FF02C
:100EB000000B4BEB0B0BE3FB009B1AEB0B0A4FF009
:100EC000000B4BEB0B0BE4FB00AB07EE90CA11EEF3
:100ED000100A4FF0000CE1FB00EC15EB0C054FF095
:100EE000000C4CEB0C0CE2FB005C16EB0C064FF01C
:100EF000000C4CEB0C0CE3FB006C17EB0C074FF0F9
:100F0000000C4CEB0C0CE4FB007C13EE100A18EB0D
:100F10000C084FF0000C4CEB0C0CE1FB008C19EBB7
:100F20000C094FF0000C4CEB0C0CE2FB009C1AEB94
:100F30000C0A4FF0000C4CEB0C0CE3FB00AC1BEB71
:100F40000C0B4FF0000C4CEB0C0CE4FB00BC08EE5F
:100F500010EA11EE900A4FF0000EE1FB005E16EB76
:100F60000E064FF0000E4EEB0E0EE2FB006E17EB7E
:100F70000E074FF0000E4EEB0E0EE3FB007E18EB5B
:100F80000E084FF0000E4EEB0E0EE4FB008E13EE3B
:100F9000900A19EB0E094FF0000E4EEB0E0EE1FB1E
:100FA000009E1AEB0E0A4FF0000E4EEB0E0EE2FB07
:100FB00000AE1BEB0E0B4FF0000E4EEB0E0EE3FBE4
:100FC00000BE1CEB0E0C4FF0000E4EEB0E0EE4FBC1
:100FD00000CE53EC172A18EE104A12EB0A0253EB1C
:100FE0000B0354EB0C0455EB0E05002040F1000000
:100FF00012EB0B0253EB0C0354EB0E0455EB0E05F6
:1010000046410020474158EB000859EB0A0940F1DE
:101010000000B2EB0E0273F1000374F1000475EBF3
:101020000A0576EB0B0677EB0C0778EB0A0879EBF1
:101030000C0960F10000B5EB0B0576EB0C0677EBC5
:101040000E0778EB0B0879EB0E0960F100005FEA00
:10105000E07C7FEA0C0CDCF1000EB2EB0C0273EBCF
:101060000C0374EB0C0475F1000576F1000677F1C2
:10107000000778EB0E0879EB0C0960F100005FEADD
:10108000E07CDCF1000E12EB0C0253EB0C0354EB92
:101090000C0455F1000556F1000657F1000758EB16
:1010A0000E0859EB0C0940F100005FEAE07CDCF12E
:1010B000000E12EB0C0253EB0C0354EB0C0455F135
:1010C000000556F1000657F1000758EB0E0859EBE2
:1010D0000C095BEC15AA51EC160A1AEB060A5BEB3D
:1010E000070B50EB080051EB09015FF0000C4CF1CD
:1010F000000C1AEB070A5BEB080B50EB090051EBF5
:10110000090152EB0C025FF0000C53EB0C0354EBA3
:101110000C0475414CF1000CBAEB090A7BF1000B91
:1011200070F10000B141BA4173EB0803B44175EBB3
:1011300008056CF1000CC91B72EB080273EB090384
:10114000BC4175EB09056CF1000C5FEAEC787FEAB5
:101150000808D8F10009BAEB080A7BEB080B70EB22
:10116000080071F1000172F1000273F1000374EBE9
:10117000090475EB08056CF1000C5FEAEC78D8F116
:1011800000091AEB080A5BEB080B50EB080051F161
:10119000000152F1000253F1000354EB090455EB36
:1011A00008054CF1000C5FEAEC78D8F100091AEB65
:1011B000080A5BEB080B50EB080051F1000152F1FB
:1011C000000253F1000354EB090455EB080514EE3B
:1011D000107AA7E8000C87E83F00BDE8F08F00BF59
:1011E0002DE9F00791E8F807B2E802105B1854EB1C
:1011F0000C04B2E802104D4156EB0C06B2E80210A6
:101200004F4158EB0C08B2E8021059EB01095AEBB8
:101210000C0A4FF0260261EB010122EA01015B1882
:1012200054F1000455F1000556F1000657F100078E
:1012300058F1000859F100095AF1000A61EB010167
:1012400022EA01010B4480E8F807BDE8F007704787
:101250002DE9F00791E8F807B2E802105B1A74EB89
:101260000C04B2E802108D4176EB0C06B2E80210D5
:101270008F4178EB0C08B2E8021079EB01097AEBA8
:101280000C0A4FF0260261EB010102EA01015B1A30
:1012900074F1000475F1000576F1000677F100079E
:1012A00078F1000879F100097AF1000A61EB010197
:1012B00002EA0101A3EB010380E8F807BDE8F007AB
:1012C00070470A462DE9F04F41EC140A92EC080AE7
:1012D0001EC910EE100AA1FB00784FF00009E2FBD6
:1012E00000894FF0000AE3FB009A4FF0000BE4FB8B
:1012F00000AB12EE100A4FF0000CE1FB00BC4FF007
:10130000000EE2FB00CE4FF00005E3FB00E54FF0DE
:101310000006E4FB005605EE107A10EE900A4FF03E
:101320000007E1FB008719EB07094FF0000747EBC7
:101330000707E2FB00971AEB070A4FF0000747EB9D
:101340000707E3FB00A71BEB070B4FF0000747EB7A
:101350000707E4FB00B712EE900A1CEB070C4FF0F6
:10136000000747EB0707E1FB00C71EEB070E4FF036
:10137000000747EB0707E2FB00E7ED194FF0000716
:1013800047EB0707E3FB0057F6194FF0000747EB61
:101390000707E4FB006705EE908A11EE100A4FF094
:1013A0000008E1FB00981AEB080A4FF0000848EB30
:1013B0000808E2FB00A81BEB080B4FF0000848EB05
:1013C0000808E3FB00B81CEB080C4FF0000848EBE2
:1013D0000808E4FB00C813EE100A1EEB080E4FF0DD
:1013E000000848EB0808E1FB00E815EB08054FF0A2
:1013F000000848EB0808E2FB005816EB08064FF01F
:10140000000848EB0808E3FB006817EB08074FF0FB
:10141000000848EB0808E4FB007806EE109A11EE8D
:10142000900A4FF00009E1FB00A91BEB090B4FF0FC
:10143000000949EB0909E2FB00B91CEB090C4FF06C
:10144000000949EB0909E3FB00C91EEB090E4FF047
:10145000000949EB0909E4FB00E913EE900A15EBDA
:1014600009054FF0000949EB0909E1FB005916EBAA
:1014700009064FF0000949EB0909E2FB006917EB87
:1014800009074FF0000949EB0909E3FB007918EB64
:1014900009084FF0000949EB0909E4FB008906EE51
:1014A00090AA14EE901A01F110011EC910EE100A54
:1014B0004FF0000AE1FB00BA1CEB0A0C4FF0000AE7
:1014C0004AEB0A0AE2FB00CA1EEB0A0E4FF0000AC2
:1014D0004AEB0A0AE3FB00EA15EB0A054FF0000AA3
:1014E0004AEB0A0AE4FB005A12EE100A16EB0A064F
:1014F0004FF0000A4AEB0A0AE1FB006A17EB0A0701
:101500004FF0000A4AEB0A0AE2FB007A18EB0A08DD
:101510004FF0000A4AEB0A0AE3FB008A19EB0A09BA
:101520004FF0000A4AEB0A0AE4FB009A07EE10BAF1
:1015300010EE900A4FF0000BE1FB00CB1EEB0B0E00
:101540004FF0000B4BEB0B0BE2FB00EB15EB0B052D
:101550004FF0000B4BEB0B0BE3FB005B16EB0B06AA
:101560004FF0000B4BEB0B0BE4FB006B12EE900A01
:1015700017EB0B074FF0000B4BEB0B0BE1FB007B6A
:1015800018EB0B084FF0000B4BEB0B0BE2FB008B47
:1015900019EB0B094FF0000B4BEB0B0BE3FB009B24
:1015A0001AEB0B0A4FF0000B4BEB0B0BE4FB00AB01
:1015B00007EE90CA11EE100A4FF0000CE1FB00ECB0
:1015C00015EB0C054FF0000C4CEB0C0CE2FB005C37
:1015D00016EB0C064FF0000C4CEB0C0CE3FB006C14
:1015E00017EB0C074FF0000C4CEB0C0CE4FB007CF1
:1015F00013EE100A18EB0C084FF0000C4CEB0C0C1F
:10160000E1FB008C19EB0C094FF0000C4CEB0C0CBF
:10161000E2FB009C1AEB0C0A4FF0000C4CEB0C0C9C
:10162000E3FB00AC1BEB0C0B4FF0000C4CEB0C0C79
:10163000E4FB00BC08EE10EA11EE900A4FF0000E39
:10164000E1FB005E16EB0E064FF0000E4EEB0E0EA9
:10165000E2FB006E17EB0E074FF0000E4EEB0E0E86
:10166000E3FB007E18EB0E084FF0000E4EEB0E0E63
:10167000E4FB008E13EE900A19EB0E094FF0000EFA
:101680004EEB0E0EE1FB009E1AEB0E0A4FF0000E21
:101690004EEB0E0EE2FB00AE1BEB0E0B4FF0000EFE
:1016A0004EEB0E0EE3FB00BE1CEB0E0C4FF0000EDB
:1016B0004EEB0E0EE4FB00CE4FF0260153EC152A44
:1016C0004FF00000E6FB01201B184FF0000040EB3C
:1016D0000000E7FB013057EC166A36184FF00000A7
:1016E00040EB0000E8FB01603F184FF0000040EBCA
:1016F0000000E9FB017059EC178A18EB00084FF065
:10170000000040EB0000EAFB018019EB00094FF0FC
:10171000000040EB0000EBFB019018EE10AA1AEB62
:10172000000A4FF0000040EB0000ECFB01A02D1878
:101730004FF0000040EB0000EEFB015000FB01F019
:10174000121853F1000356F1000657F1000758F143
:10175000000859F100095AF1000A55F1000B60EB3D
:10176000000021EA0000024414EE100A80E8CC0FC9
:10177000BDE8F08F2DE9F00791E8F0174EF6A15182
:101780004FEA4101A4FB01234FF00004E5FB0134C3
:101790004FF00005E6FB01454FF00006E7FB015660
:1017A0004FF00007E8FB01674FF00008E9FB017804
:1017B0004FF00009EAFB01894FF0000AECFB019AA7
:1017C0004FF026010AFB01FA12EB0A0253F1000363
:1017D00054F1000455F1000556F1000657F10007D9
:1017E00058F1000859F100096AEB0A0A21EA0A01D6
:1017F0000A4480E8FC03BDE8F00770472DE9F003D8
:1018000090E8F8134FEAEC7202F013022CF0004C4F
:1018100002F11301591854F1000155F1000156F17C
:10182000000157F1000158F1000159F100015CF18C
:1018300000014FEAE17101F0130111445B1854F10A
:10184000000455F1000556F1000657F1000758F164
:10185000000859F100094CF1000C2CF0004C80E814
:10186000F813BDE8F00370472DE9F05F054600204E
:1018700092469B4688460646814640241BE0284601
:1018800041464746224600F0C5F953465A46C01A1B
:10189000914110D311461846224600F016F82D1A31
:1018A00067EB01084F4622460120002100F00DF8A9
:1018B00017EB00094E41201EA4F10104DFDC48466D
:1018C00031462A464346BDE8F09F202A04DB203AF1
:1018D00000FA02F1002070479140C2F1200320FA83
:1018E00003F319439040704700487047080A050009
:1018F00010B5441A0346944209D28418114403E0F7
:1019000011F8013D04F8013D521EF9D210BD40EA24
:101910000104A40703D009E010C9121F10C3042A50
:10192000FAD203E011F8014B03F8014B521EF9D231
:1019300010BDD2B201E000F8012B491EFBD2704766
:101940000022F6E710B513460A4604461946FFF78B
:10195000F0FF204610BD421C10F8011B0029FBD1EE
:10196000801A704730B504460020034600E05B1C37
:10197000934203D2E05CCD5C401BF8D030BD0346FF
:1019800011F8012B00F8012B002AF9D118467047F5
:101990002DE9FE4F804681EA0300C00F0C460090FF
:1019A00021F0004123F00045B8EB0200A94105D227
:1019B0004046214690461C460B46024623F0004016
:1019C000104347D0270DC7F30A00C3F30A51029012
:1019D000401A019040286BDAC3F3130040F4801BD7
:1019E0000098924620B10023D2EB030A63EB0B0B65
:1019F00001985946C0F140025046FFF766FF06467F
:101A00000D4650465946019A00F014F910EB0800B3
:101A10006141002487EA115284EAE7731A4340D0F7
:101A2000009A62B3019A012A4FEA075215DC001BA3
:101A300061EB02014FF0004202EA0752CDE9004299
:101A4000001C41F5801132462B4600F04BF903B0E3
:101A5000BDE8F08F40462146F9E7001B61EB02012B
:101A6000001C41F5801300185B412018A2F50017F7
:101A700047EB030140EAD570B6196D4111E06D08DE
:101A80004FEA360645EAC0754FEA0752001B61EB84
:101A90000201001C41F5801149084FEA300000198D
:101AA000514132462B4603B0BDE8F04F00F00BB970
:101AB0000098012240000023D0EB020263EBE073A8
:101AC000009821464FEAE074B8EB000061EB040196
:101AD000E9E783F000435BE781F0004158E72DE937
:101AE000FE4F81EA030404F0004421F00041009419
:101AF0004FF0000B23F0004350EA01045ED052EA9D
:101B000003045BD0C3F30A54C1F30A552C44A4F276
:101B1000F3340194A0FB0254C1F3130141F480118A
:101B2000C3F3130343F4801301FB024400FB034E91
:101B3000840A970A44EA815447EA8357A4FB07685A
:101B400002958D0A05FB07854FEA932C04FB0C5484
:101B50002705029D4FEA065847EA1637B5EB0805F8
:101B60006EEB070C870E920E47EA811742EA83124A
:101B7000A7FB0201B6EB0B0164EB00042B0D43EA5B
:101B80000C335E1844EB1C50DA465146E7FB020169
:101B9000C5F313044FEA0B3343EA14534FEA0432FC
:101BA000019C43EA0603A4F10C040294009CCDE9D5
:101BB00000B400F097F803B0BDE8F08F00200146B4
:101BC000F9E70EB540F2334102910021CDE9001151
:101BD0000A460B4600F086F803B000BD01F0004352
:101BE00030B421F0004150EA010206D00A0DA2F5FE
:101BF0006072C1F31301002A02DC30BC0020704780
:101C0000440F44EAC104C100E01830BC00EBC250EC
:101C100000F022B8202A04DB203A21FA02F0002149
:101C2000704721FA02F3D040C2F1200291400843EC
:101C300019467047202A06DBCB17203A41FA02F0FA
:101C400043EAE07306E041FA02F3D040C2F1200219
:101C500091400843194670470029A8BF7047401CAF
:101C6000490008BF20F00100704710B4B0FA80FCB2
:101C700000FA0CF050EA010404BF10BC704749B1EF
:101C8000CCF1200421FA04F411FA0CF118BF01215F
:101C900021430843A3EB0C01CB1D4FEA00614FEA3F
:101CA000102042BF002010BC704700EBC35010440E
:101CB0000029A4BF10BC7047401C490008BF20F099
:101CC000010010BC704710B5141E73F1000408DA4F
:101CD000401C41F1000192185B411A4301D120F0F0
:101CE000010010BD2DE9F04D92469B4611B1B1FAAD
:101CF00081F202E0B0FA80F220329046FFF7E5FD73
:101D000004460F4640EA0A0041EA0B0153465A4690
:101D1000084313D0114653EA010019D0C8F140021C
:101D20005046FFF777FF05460E4650465946424655
:101D3000FFF7CBFD084305D0012004E020463946DB
:101D4000BDE8F08D0020054346EAE0762C4337439A
:101D50000A986305E40AA0EB08000022FD0A44EAA1
:101D600047540A3002D500200146E9E70105101961
:101D70006941DDE9084500196941BDE8F04DA2E778
:101D8000064C074D06E0E06840F0010394E80700C8
:101D900098471034AC42F6D3FEF736FA482D0500CA
:101DA000682D050070B58C1810F8015B15F007035D
:101DB00001D110F8013B2A1106D110F8012B03E0E4
:101DC00010F8016B01F8016B5B1EF9D12B0705D4EC
:101DD0000023521E0DD401F8013BFAE710F8013B35
:101DE000CB1A921C03E013F8015B01F8015B521E51
:101DF000F9D5A142D8D3002070BD00002DE9F041F3
:101E00000446B0B00D460A46684604F1200700219A
:101E100000F0C0F804F140083A46214610A804F149
:101E20006006FFF74FFA4146324618A8FFF74AFA14
:101E30004246394620A8FFF745FA3246214628A8EF
:101E4000FFF740FAEB0F6A4610A9204600F000F9B0
:101E500030B0BDE8F08100BF2DE9F0410446B0B0DC
:101E60000D460A46684604F12007012100F092F869
:101E700004F140083A46214610A804F16006FFF735
:101E800021FA4146324618A8FFF71CFA4246394665
:101E900020A8FFF717FA3246214628A8FFF712FAC2
:101EA000EB0F6A4610A9204600F0D2F830B0BDE82A
:101EB000F08100BF2DE9F0410446B0B0684604F15E
:101EC0002006884604F1400700F096F804F160050A
:101ED0003246214610A8FFF7F5F939462A4618A8D8
:101EE000FFF7F0F93A46314620A8FFF7EBF92A460A
:101EF000214628A8FFF7E6F94FEAD8736A4610A9E9
:101F0000204600F0A5F830B0BDE8F08170B5A0B073
:101F1000044601F1200668460D46FFF7D2F9314626
:101F200008A8FFF7CEF905F1400110A8FFF7C9F99D
:101F300010AA11461046FFF753F9694618A800F099
:101F4000D1FB324629462046FFF74AF92146204672
:101F5000FFF7B7F96A4621462046FFF779F904F101
:101F6000400508AA21462046FFF772F9284608AA2C
:101F700018A9FFF735F910AA294604F12000FFF748
:101F800067F908AA18A904F16000FFF761F920B009
:101F900070BD00BF2DE9F84302EBE27686EAE276F7
:101FA00080460C46002100F093FB08F12007711ECB
:101FB000C90F38460F4D00F08BFB05EB442540352B
:101FC0004FF0010986EA0904013CE40F2946224644
:101FD0004046FEF77BFA09F1010905F1200122468E
:101FE0003846FEF773FAB9F1090F05F14005E9D15A
:101FF000BDE8F883682605002DE9F84301EBE17799
:10200000814687EAE177002100F062FB09F12008B0
:10201000791EC90F404600F05BFB0C4E012587EA94
:102020000504013CE40F314622464846FEF74EFACD
:10203000013506F1200122464046FEF747FA092DF8
:1020400006F14006EBD1BDE8F88300BFA82A0500E1
:102050002DE9F0430D46A1B001F1200916460446D2
:1020600049462A466846984606F12007FFF7F0F8E9
:1020700049462A4608A8FFF7B3F83946324610A861
:10208000FFF7E6F83946324618A8FFF7A9F84246A6
:1020900018A910A8FEF785FA10AA69466846FFF746
:1020A00011F908A918AA0846FFF70CF93A46314673
:1020B00010A8FFF707F910A905F160020846FFF71D
:1020C00001F910A90846144AFFF7FCF805F140028F
:1020D000114618A8FFF784F86A4608A92046FFF7BA
:1020E000B7F804F120056A4608A904F16000FFF77B
:1020F00077F84034284610AA18A9FFF7A9F810AAC3
:1021000018A92046FFF76CF8424629462046FEF7FC
:1021100048FA21B0BDE8F083A82C05002DE9F0476E
:10212000CC7F0D78C0B00B4604F03F044978D3F85B
:1021300004C093F802809F68D3F810A0DE688DF881
:10214000411044F04004114625F007055A698DF806
:102150005F409C6993F803E08DF840508DF8428011
:102160001D7F93F81D809B7F8DF843E08146684674
:10217000CDE911C78DF85E30CDE91524CDE9136A9C
:102180008DF85D808DF85C5000F086FA202269465B
:1021900018A8FEF7A9FC6846012100F099FA08A8E2
:1021A000002100F095FA18A920A82022FEF79CFC37
:1021B00028A8012100F08CFA18AF0DF140084FF06B
:1021C000060A002417F8016D46FA0AF505F0010524
:1021D0006C40224620A96846FEF7E3F9224628A96A
:1021E00008A8FEF7DEF908AA694630A8FEF7F8FF4E
:1021F00008AA10466946FFF72BF828AA20A938A894
:10220000FEF7EEFF28AA104620A9FFF721F838A90B
:10221000084608AAFFF756F828A9084630AAFFF78B
:1022200051F838AA28A920A8FEF7DAFF28A938AA69
:102230000846FFF70DF820A90846FFF742F828A93D
:102240000846FFF73EF828A918AA0846FFF73AF80B
:1022500030A90846FFF735F808A938A8FFF731F884
:1022600038AA30A96846FFF72DF830A938AA0846E1
:10227000FEF7EEFF30A908A8FFF77CFA08A9084688
:1022800038AAFEF7ADFF08A90AF1FF3A30AA0846BE
:10229000FFF718F8BAF1FF3F2C4695D147454FF0AC
:1022A000070A8FD108A90846012200F02DFA08AAD2
:1022B00069466846FFF706F86946484600F036FB6F
:1022C00040B0BDE8F08700BF014AFFF727BF00BF5D
:1022D0002823050070B500F1200590B00E46044695
:1022E00000F058FB06F12001284600F053FB214680
:1022F00008A8FEF773FC08A908460C4AFEF702FC82
:1023000008A922460846FEF76AFC08A90846084ABA
:10231000FEF7F8FB29466846FEF760FC694608A808
:102320002022FEF7C1FB013810B070BDC82C05009B
:10233000E82C05002DE9F047B8B08A4681461146E1
:1023400010A8514AFEF7A2F85049024610A8FEF71D
:10235000BDF8179F4C4900EAD7778046C7F10102C4
:1023600010A8FEF7B3F8179D524628A918A8ED4308
:1023700001F08AF8ED0F20A9C5F10102084600F02E
:10238000EDFAC8F10108FE266A4618A928A801F04E
:102390002FF8731138AA02EB830306F01F0253F8DB
:1023A000A04CD44004F0010465402A4628A918A88E
:1023B000FEF7F7F82A4630A920A8FEF7F2F8013E0A
:1023C00028A918A800F0AEFF731C2546DCD1C4F183
:1023D000010208A820A900F0C1FA7D406A4618A9A8
:1023E00028A801F005F828A92A4618A8FEF7D9F868
:1023F0002A4630A920A8FEF7D4F808A96A4608465C
:10240000FEF7EDFB08A9084600F0DEFA08A909F17D
:1024100020040AF120020846FEF7E1FB20A908AAE1
:102420002046FEF7DCFB08AA18A96846FEF7D7FB92
:1024300069466846FEF7D2FB18AA694608A8FEF767
:10244000CEFB21466846FEF7C9FB08AA694610463E
:10245000FEF797FB08A90E4A6846FEF792FB204656
:102460002021FEF734FB08A943420246684643EAAE
:102470000808FEF796F848466946064AFEF7AFFB9D
:10248000404638B0BDE8F087282D05000826050035
:10249000E82C0500282605000A460149FFF74ABF37
:1024A0004823050000F040BB38B504460D4600F057
:1024B0003BFB05F1200104F12000BDE8384000F0AD
:1024C00033BB00BF30B5A9B014460546684600F0DE
:1024D0009DFB214618A8FFF7FDFE6A4618A9044691
:1024E00008A8FFF727FF08A904432846FFF7DAFFEB
:1024F000204629B030BD00BF30B599B005466846CA
:1025000000F084FB694608A8FFF7C6FF08A9044647
:102510002846FFF7C9FF204619B030BD10B520226C
:10252000B0B004460DEB020000F09AFB9DF83F307E
:102530009DF8202003F07F0343F0400322F00702C0
:1025400008A968468DF83F308DF8202000F006FB82
:10255000694618A800F028F818A9204600F002F8EB
:1025600030B010BD30B599B004460D4610A84031CA
:10257000012200F0C9F810AA29466846FEF7A2FE1B
:1025800010AA05F1200108A8FEF79CFE08A9204624
:1025900000F0CCF9684600F093F8E37F83EAC010BE
:1025A000E07719B030BD00BF2DE9F041B0B0E8468A
:1025B0000446404600F00AFB04F1400620469DF91F
:1025C0003F10FFF719FD3046012100F081F804F1BA
:1025D00020070DF11505214610A8FFF797FC18AA52
:1025E00010A92046FEF76EFE28AA20A93846FEF75D
:1025F00069FE20AA18A93046FEF764FE214610A8FD
:10260000FFF784FC18AA10A92046FEF75BFE28AA53
:1026100020A93846FEF756FE20AA18A93046FEF734
:1026200051FE214610A8FFF771FC18AA10A92046F8
:10263000FEF748FE28AA20A93846FEF743FE20AA46
:1026400018A93046FEF73EFE214610A8FFF75EFCB3
:1026500015F9011D10A8FFF7D1FB95F9151010A869
:10266000FFF7FAFB95F92A1010A8FFF723FC18AA28
:1026700010A92046FEF726FE28AA20A93846FEF714
:1026800021FE20AA18A93046FEF71CFEA845A2D1BB
:1026900030B0BDE8F08100BF0B6803604B68436059
:1026A0008B688360CB68C3600B6903614B694361CE
:1026B0008B698361CB6923F00043C361704700BF1E
:1026C00010B50446FFF79AF8206800F0010010BD2D
:1026D0000023C0E90013C0E90233C0E90433C0E9B4
:1026E0000633704700B589B000230A466946CDE934
:1026F0000033CDE90233CDE90433CDE90633FEF7EB
:10270000A7FD09B05DF804FBF0B5A1B00546684629
:1027100017460E46FEF7D5FD694618A8FEF7D1FD0F
:1027200018A90846FEF7CDFD324618A908A8FEF7FD
:10273000C9FD6A4608A96846FEF7C4FD694618A89F
:10274000FEF7BFFD08AA104618A9FEF7BBFD08A9B1
:1027500018A8FEF7B6FD18A90846FEF7B2FD18A99D
:102760000846FEF7AEFD18A90846FEF7AAFD18A90F
:102770000846FEF7A6FD08AA18A91046FEF7A2FD16
:10278000022408A900E0012418A8FEF79AFD18A960
:102790000846FEF796FD18A90846FEF792FD18A90F
:1027A0000846FEF78EFD18A90846FEF78AFD012CA3
:1027B00018A9E8D110A808AAFEF784FD042410A9DE
:1027C00018A8FEF77EFD18A90846FEF77AFD18A99D
:1027D0000846FEF776FD18A90846FEF772FD18A90F
:1027E0000846FEF76EFD013C18A9E9D110AA08467B
:1027F000FEF768FD022400E0012418A90846FEF750
:1028000060FD18A90846FEF75CFD18A90846FEF70A
:1028100058FD18A90846FEF754FD18A90846FEF70A
:1028200050FD012CE8D118A908AA10A8FEF74AFD0E
:102830000A2410A918A8FEF744FD18A90846FEF7B7
:1028400040FD18A90846FEF73CFD18A90846FEF70A
:1028500038FD18A90846FEF734FD013C18A9E9D156
:1028600010AA08A8FEF72EFD142408A918A8FEF740
:1028700028FD18A90846FEF724FD18A90846FEF70A
:1028800020FD18A90846FEF71CFD18A90846FEF70A
:1028900018FD013C18A9E9D108AA0846FEF712FD67
:1028A0000A2418A90846FEF70CFD18A90846FEF7E9
:1028B00008FD18A90846FEF704FD18A90846FEF70A
:1028C00000FD18A90846FEF7FCFC013CE9D118A957
:1028D000084610AAFEF7F6FC18A9084667B9FEF7E5
:1028E000F0FC18A90846FEF7ECFC324618A9284669
:1028F000FEF7E8FC21B0F0BDFEF7E3FC18A908469E
:10290000FEF7DFFC18A90846FEF7DBFC18A908460D
:10291000FEF7D7FC18A90846FEF7D3FC6A4618A9AB
:102920002846FEF7CFFC21B0F0BD00BF38B50C46FD
:1029300005460846FEF762FF23682B6063686B60FC
:10294000A368AB60E368EB6023692B6163696B612B
:10295000A369AB61E369EB6138BD00BF70B588B0B6
:1029600004460D46684620211646FEF7C4F80023AB
:102970002946204620220093FEF7B6F82A466946EB
:102980006846FEF7FEF8324669462046FDF709FE26
:1029900008B070BD0B681BBAC3614B681BBA83617A
:1029A0008B681BBA4361CB681BBA03610B691BBA06
:1029B000C3604B691BBA83608B691BBA4360CB69E8
:1029C0001BBA0360704700BF70B598B00D4606464D
:1029D00010A8FEF703F92A4610A96846FEF7FFF88B
:1029E000694610A8FEF7FAF810A90846FEF7F6F8AF
:1029F0006A4610A908A8FEF7F2F808A910A8FEF781
:102A0000EDF810A90846FEF7E9F810A90846FEF708
:102A1000E5F810A90846FEF7E1F810A908AA08464B
:102A2000FEF7DDF810A90846FEF7D8F810A9084609
:102A3000FEF7D4F810A96A4608A8FEF7D0F80524D6
:102A400008A910A8FEF7CAF810A90846FEF7C6F8AC
:102A5000013C10A9F5D108AA0846FEF7C0F80524E4
:102A600010A90846FEF7BAF810A90846FEF7B6F80E
:102A7000013CF5D110A908AA0846FEF7B0F810A944
:102A800008A8FEF7ABF808A90846FEF7A7F808A9BA
:102A90006A466846FEF7A3F81024694610A8FEF7B8
:102AA0009DF810A90846FEF799F8013C10A9F5D148
:102AB0002A460846FEF793F8402410A90846FEF778
:102AC0008DF810A90846FEF789F8013CF5D110A948
:102AD0006A460846FEF783F8102410A90846FEF758
:102AE0007DF810A90846FEF779F8013CF5D110A948
:102AF0006A460846FEF773F8102410A90846FEF748
:102B00006DF810A90846FEF769F8013CF5D110A947
:102B100008AA0846FEF763F82A4610A93046FEF7D1
:102B20005EF818B070BD00BFCB691BBA03608B693B
:102B30001BBA43604B691BBA83600B691BBAC36045
:102B4000CB681BBA03618B681BBA43614B681BBA25
:102B500083610B681BBAC361704700BFF0B50B46B9
:102B600099B0DA69184D149218A9120F04465F68DB
:102B70009E68186941F85C2DDA68D3F800C00E979A
:102B80000F965F699E69109200232A46119005A84E
:102B9000CDF834C0CDE916331593CDE90333029354
:102BA00012971396FDF708FD019B05AA1B070DA9B7
:102BB00020460C93FDF76AFCE2692946D20F2046B5
:102BC000FDF784FC19B0F0BD48260500F0B40025DF
:102BD000471E2C462A46E30814F0070F08BF51F899
:102BE000235005F00F03134403F1080212090134C6
:102BF000D6B2A3EB06133F2C4FEA151507F8013F99
:102C0000E9D1354480F83F50F0BC704738B50B68C7
:102C1000114D1BBAC3614B681BBA83618B681BBA29
:102C20004361CB681BBA03610B691BBAC3604B6974
:102C30001BBA83608B691BBA4360CB691BBA2A46F7
:102C4000036001460446FDF721FC29460246204662
:102C5000BDE83840FDF73ABC082D05000000000033
:102C60002DE9F04DE2A5D5E90045B2B0E2A7D7E9DC
:102C70000067CDE90045E2A5D5E90045CDE9026749
:102C8000E1A7D7E90067CDE90445E1A5D5E900450D
:102C9000CDE90667E0A7D7E90067CDE908450FF25F
:102CA000803BDBE900ABE0A5D5E90045CDE90A674B
:102CB0000027CDE90C4580461446CDE90EABCDE9A1
:102CC0003072002A40F0CD8080238DF84030012002
:102CD0006D4610AE00F1400E05EB0E035B42471C43
:102CE00003F00303D91C7B2FC0F17B0C88BF4FF08E
:102CF000010C052938BF05217B2FC0F17A0288BF5E
:102D00000022914229D8ABB132AA02440021012B02
:102D100002F8881C00F0A38032AA1744032B00F1AC
:102D2000020207F8881C40F0538132AF3A44033066
:102D300002F8881CACEB030C002273442B444FEACE
:102D40009C0711460132974243F8041BFAD82CF035
:102D500003036345184427D0471C32AB03440022C9
:102D60007B2F03F8882C1FD032AB3B44811C7B297E
:102D700003F8882C18D032AB1944C31C7B2B01F804
:102D8000882C11D032A90B44011D7B2903F8882C13
:102D90000AD0053032AB7B28194418BFC01801F89F
:102DA000882C18BF00F8882C620F002362F30703F9
:102DB000620D62F30F23620B62F31743620931461F
:102DC00062F31F632846E400CDF8BB308DF8BF40A6
:102DD00000F076FDDDE90623DDE90076DDE9025449
:102DE000DDE9040193FA83FE089BC8F818E036BABF
:102DF0002DBA24BA00BA09BA12BA93FA83FCC8F8F9
:102E00000060C8F80C50C8F80840099D0A9CC8F832
:102E10001400C8F810100B980C99C8F81C200E9BD1
:102E20000D9A0F9EC8F824C03FBA2DBA24BA00BA32
:102E300009BA12BA1BBA36BAC8F80470C8F82050DA
:102E4000C8F82C40C8F82800C8F83410C8F830205A
:102E5000C8F83C30C8F8386032B0BDE8F08D38466C
:102E600068E76D4628460E4600F06AFB241A0246C3
:102E70003119002800F0AE80431E022B40F2B280D0
:102E800010AE4FEA900C3B4634460846013350F8EA
:102E9000047B44F8047B6345F8D322F003039A4291
:102EA000194414D032A818440C7800F8884C581CE7
:102EB00082420CD932AC204402334C7800F8884C62
:102EC0009A4204D932A80344897803F8881C32ABAB
:102ED000501C134480217028309203F8881C40F263
:102EE00084807F286BD832AB1844911C0023802942
:102EF00000F8883C63D032A80144D01C802801F837
:102F0000883C5CD032A90844111D802900F8883C17
:102F100055D032A80144501D802801F8883C4ED07D
:102F200032A90844911D802900F8883C47D032A876
:102F30000144D01D802801F8883C40D032A90844C3
:102F400002F10801802900F8883C38D032A80144F9
:102F500002F10900802801F8883C30D032AB1844D7
:102F600002F10A010023802900F8883C27D032A80A
:102F7000014402F10B00802801F8883C1FD032A9DF
:102F8000084402F10C01802900F8883C17D032A8CF
:102F9000014402F10D00802801F8883C0FD032A9CD
:102FA000084402F10E01802900F8883C07D032A8BD
:102FB0000144702A01F8883C08BF8DF8BF303146C3
:102FC000284600F07DFC7A28319C7FF683AEEBE644
:102FD0001046AFE6802330908DF84030319C0120C0
:102FE00010AE77E63B4610AE5CE7319C72E600BF60
:102FF00008C9BCF367E6096A3BA7CA8485AE67BB0C
:103000002BF894FE72F36E3CF1361D5F3AF54FA536
:10301000D182E6AD7F520E511F6C3E2B8C68059B12
:1030200079217E1319CDE05B6BBD41FBABD9831FCA
:103030002DE9F04F9FB0A1F108031C93D2E90E34A3
:10304000CDE91834D2E90C34CDE90034D2E90A34A0
:10305000CDE90234D2E90634CDE91A34D2E902349A
:10306000CDE90634D2E90434CDE9043400F180031B
:10307000D2E908ABD2E900891D9309909446014634
:1030800005E0CDE90689DDE91689B246BB46F1E8DF
:1030900002451C9F09914FEA9A3242EA8B424FEA5D
:1030A0009A43F7E902010A9243EA8B334FEA9B36CF
:1030B0004FEA9B420C9346EA8A4642EA8A324FEA3A
:1030C000CB530D920B9643EA5A23CDE916010F9389
:1030D000DDE90C011C974FEACA53DDE90A6743EAB0
:1030E0005B230E9346404F40DDE90E014FEA187313
:1030F00043EA091370407940109306460F464FEAA1
:103100008973DDE9160143EA980313934FEA1973B3
:1031100000194FEA887243EA08136941119342EAA1
:103120009903CDE916011293DDE90201DDE90023DF
:103130004FEA496442404B4044EAD814DDE91601A5
:103140001594DDE90045801902EA0A024FEA486E4B
:1031500079415440DDE9066703EA0B034EEAD912D0
:103160005D401492DDE9042346EA080647EA0907B0
:10317000324016463B4022181F4645EB0103DDE96D
:103180001045DDE91201CDE9162344404D40DDE94B
:1031900014016040694004460D46DDE9060100EA7D
:1031A000080001EA090140EA060241EA0703104665
:1031B000DDE918671946DDE9162392197B41DDE93F
:1031C0001A6700196941B6185F41841841EB03057D
:1031D000DDE90201CDE91645CCE90C01DDE9003459
:1031E000DDE90412CCE90E34CCE90612CDE918343D
:1031F000DDE90423CDE91A23DDE90234DDE9060126
:10320000CDE90034DDE91634CCE90401CCE9003421
:10321000CDE904011D9B09999942CCE90AABCCE99F
:103220000289CCE90867CDE902AB7FF42AAF1FB071
:10323000BDE8F08F2DE9F04F4FF0000C8BB08646C3
:10324000A0F1080A6346ACF102040CF1010C0CF089
:103250000F000EEBC00204F00F045EF8300052685D
:103260000EEBC401073B5EF8344049684FEA500852
:1032700003F00F03070A0EEBC30B48EAC273E60C18
:10328000009347EA0263CD00029346EA4133049378
:10329000CE0C45EA54730793E50046EA44330593A0
:1032A000A60945EA51735408069344EAC073140A08
:1032B0004FEAD018019344EA006348EA4268039356
:1032C0004FEAD219FAE9022346EA8166CDE90823DA
:1032D0008F09DDE90623DDE90401DBE90045504003
:1032E0005940DDE9082312196B41CDE90823DDE9D6
:1032F0000045DDE9022370407940DDE9086754406C
:103300005D4084EA0804361985EA09056F413218E0
:1033100047EB0103BCF1100FCAE9002392D10BB0B7
:10332000BDE8F08FF0B599B004460E460A46014656
:103330006846FDF726FC69466846FDF74FFC6A467D
:10334000214608A806F1200504F12007FDF747FCF7
:103350006A4631466846FDF742FC39462A4610A8BF
:10336000FDF7D0FB2A4639462846FDF70AFC2946D8
:103370003046FDF733FC6A4608A92046FDF7C2FB3C
:10338000224631463046FDF7FCFB6A4608A96846EE
:10339000FDF7F7FB6A4639463846FDF720FC324612
:1033A00008A96846FDF7EDFB6A4629462846FDF761
:1033B00016FC3A4629462846FDF7E3FB10A9684665
:1033C000FDF70CFC224669462046FDF7DAFB08A90A
:1033D00022460846FDF7D5FB10A908AA0846FDF7C6
:1033E000FEFB3A4610A93846FDF7CBFB19B0F0BDFD
:1033F0002DE9F0410C4688B005469046014622462C
:103400006846FDF7BEFB69466846FDF7E7FB6A467E
:103410002946284604F12006FDF7E1FB05F12007C7
:103420006A4621466846FDF7DAFB324630463946A1
:10343000FDF7A7FB31462046FDF7D0FB2A46214683
:103440002046FDF79EFB6A4621462046FDF799FB84
:103450006A4629464046FDF794FB424639463846BF
:10346000FDF7BDFB224629466846FDF78AFB6A4602
:1034700031463046FDF7B3FB3A4631463046FDF75C
:1034800080FB08B0BDE8F0812DE9F04188B00D4621
:10349000074602F12001684607F120069046FDF735
:1034A0009DFB6A4669466846FDF72CFB3046694637
:1034B000FDF794FB32463146304605F12004FDF716
:1034C00021FB6A4669466846FDF71CFB20464146DB
:1034D000FDF784FB6A4641463846FDF780FB2246ED
:1034E00021466846FDF70EFB224669466846FDF711
:1034F00009FB69466846114AFDF704FB6946284600
:10350000FDF76CFB3A4629462846FDF73AFB3A465A
:1035100029462846FDF735FB2A4639462046FDF761
:1035200030FB6A4621462046FDF759FB32462146CC
:103530002046FDF726FB08B0BDE8F081C82C050049
:103540002DE9F04FC7B07F2A159240F2AB810D46AE
:10355000A2F18001D0E900230646CDE90023D6E997
:103560000823CDE90A23D6E90A23CDE90223D6E9C7
:103570000C2321F07F04D0E902ABD6E90689D0E91B
:103580000401CDE90C23D6E90E238034CDE90E23C6
:10359000CDE904ABCDE91001CDE906892C191494CD
:1035A00009962C68AF68D5F80CA0D5F810E02E6B02
:1035B000E86913962346DDE900891BBA01930023CD
:1035C0000093AB6BAC691294CDE91689DDE90489EF
:1035D0000493DDE91023DDE900BCCDE91A23DDE920
:1035E00006233946CDE91C239AFA8AFA0BBA5A46C1
:1035F00042EA0A02CDE92823DDE90A23CDE9188948
:10360000D5F81480129E2F6A696AAC6ACDE91E2330
:1036100098FA88F89EFA8EF35A4642EA0802CDE9F3
:103620002A2300BA33BA5A4642EA0002CDE92C23D3
:1036300009BA3BBA5A4642EA0102CDE92E23EF6AA3
:10364000139ED5F858E023BA5A463FBA42EA070219
:10365000CDE93023DDE90C236C6BCDE9222324BABC
:1036600033BA5A4642EA0402DDE90201CDE93223C7
:10367000049B1FBACDE920013B46E86B6968DDE990
:103680000E6700BA4BEA0002CDE9246709BA5E462C
:10369000674646EA0106CDE934232B6EAA6E286FF1
:1036A0000493B046EB6C2E6C696C0692B946AF6F12
:1036B0001290CDE926890A97D5F84890D5F8508020
:1036C0006F6D0293EC6DE86F6A6EEB6ED5F874A0C7
:1036D00036BAB44609BA029E00BA4FF0000B4BEA64
:1036E000010B029099FA89F10020CDE936BC36BA77
:1036F00083468C464BEA060BCDE938BCDDE900BCBD
:1037000098FA88F13FBAD84689469EFA8EF148EA7F
:10371000070824BA5E460F4646EA0406049C12983F
:1037200021BACDE93C6712BA5E460F4646EA020668
:10373000069A11BA1BBA0A46594641EA030140AB40
:10374000C3E900129AFA8AFA03BA5A4642EA0A020E
:10375000CDE93E6742A90A9F5448C1E90023029A75
:103760003CBA5B4643EA0203CDE93A8916AA984679
:10377000A14644AB26A9C3E90089FFF759FC26A856
:10378000FFF758FD16AA26A94948FFF751FC26A8BD
:10379000FFF750FD16AA26A94648FFF749FC26A8C0
:1037A000FFF748FD16AA26A94348FFF741FC26A8C3
:1037B000FFF740FD16AA26A94048FFF739FC099CEF
:1037C000DDE91623D4E90067B618D4E902AB5F41FE
:1037D000DDE91834099A13EB0A0344EB0B04DDE925
:1037E0001A01CDE90434D2E904341B184C41DDE957
:1037F0001C899B46A446D2E9063413EB080344EB2C
:103800000904CDE90067CDE90634D2E90867DDE9AE
:103810001E34F61810466741D2E90A34DDE9201259
:103820005B185441CDE90234D0E90C12DDE92234B1
:10383000C918DDE924896241D0E90E3413EB08038D
:1038400044EB09049846A146DDE90034C0E90034A0
:10385000DDE90434CDE910BCC0E90234CDE90A67E2
:10386000CDE90C12CDE90E891290C0E904BCDDE966
:1038700006ABDDE90234C0E90A344C464346C0E9F0
:103880000E34149C8035A542C0E906ABC0E9086738
:10389000C0E90C127FF485AE159B03F07F0047B0A2
:1038A000BDE8F08F104647B0BDE8F08F88230500D3
:1038B0000824050088240500082505008825050042
:1038C0002DE9F04F0B68D1F808E0D1F80C90D1F851
:1038D00010C08F69D1F82080D1F824A0B7B01BBAEE
:1038E0000193002300939EFA8EF599FA89F943EA31
:1038F00009022B46DDE900450646D1F814E0C86907
:10390000CDE918239CFA8CF39C469EFA8EFE00BAF1
:1039100022463BBA44EA0E0B42EA000298FA88F5C6
:103920009AFA8AFA0024CDE91C2344EA0A022B46BB
:103930004868CDE91E23DDE90023CDE91ABCD6E9AC
:103940000089D6E902AB00BA42EA0002CDE91623AB
:10395000D6E90423CDE90689CDE908ABD6E9068985
:10396000D6E908ABCDE90A23D6E90A23CDE90C89CB
:10397000CDE90EABD6E90C89D6E90EABD1F828C05B
:10398000D1F830E08D6B086C8F6CCDE910239CFA78
:103990008CF3039300230293DDE90223CDE912891E
:1039A000D1F82C90D1F850C0D1F8588099FA89F903
:1039B00042EA0902CDE920239EFA8EF30393002305
:1039C0000293DDE90223D1F834E09EFA8EFE42EA4A
:1039D0000E02CDE922232BBA039300230293DDE9E3
:1039E0000223CD6BD1F870E02DBA42EA0502CDE991
:1039F000242303BA03930023CDE914AB8D6FD1F8D0
:103A000060A0D1F868B0486C0293DDE9022300BAE7
:103A100042EA0002CDE926233BBA03930023029336
:103A2000DDE90223C86C4F6D00BA42EA0002CDE91D
:103A300028239CFA8CF3039300230293DDE90223ED
:103A40003FBA42EA0702CDE92A23C86DD1F864C023
:103A5000CF6E98FA88F3002299469AFA8AF3039374
:103A6000029200BA42EA0008DDE902239CFA8CFCCB
:103A7000C86F42EA0C02CDE92C899BFA8BF4D1F88D
:103A80007480DDE900ABCDE92E2300BA2BBA002209
:103A90004E4D42EA000298FA88F1A1463FBA9EFADA
:103AA0008EF4CDE934234AEA070806AA4AEA010A55
:103AB000A34616A92846CDE93089CDE932ABFFF7F8
:103AC000B7FA16A8FFF7B6FB06AA16A905F18000FB
:103AD000FFF7AEFA16A8FFF7ADFB06AA16A905F583
:103AE0008070FFF7A5FA16A8FFF7A4FB06AA16A98F
:103AF00005F5C070FFF79CFA16A8FFF79BFB06AA16
:103B000016A905F50070FFF793FAD6E90023DDE961
:103B10000601D6E90289DDE908AB141843EB01057B
:103B200018EB0A0249EB0B03CDE90245DDE90AABCC
:103B3000CDE90423D6E9043413EB0A0344EB0B0468
:103B40009A46A346D6E90623DDE90C451219144628
:103B5000DDE902126B41D6E908781D46C6E900127C
:103B6000DDE90E23BF1848EB0308DDE90423C6E9AD
:103B70000878C6E90223DDE91089D6E90A2312EBA9
:103B8000080243EB090390469946C6E904ABD6E91F
:103B90000C23DDE912AB12EB0A0243EB0B03924656
:103BA0009B46C6E90645DDE91423D6E90E45A4186F
:103BB00000985D4122462B46C6E90A89C6E90CAB4E
:103BC000C6E90E2337B0BDE8F08F00BF882305009B
:103BD00070B53B4908824D8B01220324022300204B
:103BE00035B1012D0AD0022D14D0032D23D117E0B9
:103BF000B1F91050002D1EDD4A831CE0B1F91050C0
:103C0000B1F91260B54203DD0D8BCD820A8311E05C
:103C1000488310E0B1F91050002D0CDA4C830AE013
:103C2000B1F91050B1F91460B54203DA0D8BCD82B1
:103C30000883EDE74B83CD8A0E8BB5422AD00D8BDE
:103C4000CD820D6D0DB108658C65B1F91C407CB15C
:103C5000012C17D0022C0AD10C8B012C07D108663D
:103C6000CA660B678A834A66886F401C886770BD86
:103C70000B8B012BFBD148668A668A830866CA666D
:103C80000A6770BD0C8B002CFBD10A66C8660B67F7
:103C90008B8370BD8B8B73B10B6D5B1C0B650B6DD8
:103CA0004C6DA342F5D908658883C864886D401EB1
:103CB0008865CA6570BD8B6D002BEDD170BD0000AD
:103CC000D0320020F0B5158F059C258011874FF468
:103CD0007A7110FB01F0576B90FBF7F61660D06A13
:103CE00035181561146B5461906805FB00F1C81715
:103CF00001EB5040C1139161D2F80CC004FB0CF0F1
:103D00004FEAE07C00EB5C4001EBE0302118D06131
:103D10002844711A04447C434FF4FA6594FBF5F48B
:103D2000C2E909101462C2E90B101C80F0BD00004A
:103D300006484169012907D10021416142680449CF
:103D4000A1F1180000F006B87047000050330020C1
:103D500020380020002A13DD436893FBF2F34B6008
:103D6000836893FBF2F38B60C36893FBF2F3CB6041
:103D7000036993FBF2F30B61406990FBF2F0486139
:103D800070470000F0B5374C45680227E26B936B33
:103D9000D26B6B43856802FB05324FF47A7392FB5A
:103DA000F3F3A4F18002002B01DA0023576790EDB2
:103DB000000A2D4D2668B8EEC00A05EB86050026E0
:103DC000D5ED000A20EE800ABDEEC00A81ED020AA0
:103DD0004E600E614E61C568002D0CDDB2F924C045
:103DE000654502DD04200E6039E0B2F922C0654568
:103DF00002DA0E605767F0BD0D60B2F92060C56849
:103E000096FBF5F54D60184D2668203500EE103A0A
:103E100005EB8605B8EEC00AD5ED000A124D20EE7E
:103E2000800A4035BDEEC00A81ED040A246800EE28
:103E3000103A05EB8404B8EEC00AD4ED000A60EE37
:103E4000800A90ED030AB8EEC00A80EE801ABDEE3B
:103E5000C10A81ED050A506F0028CCD101205067BE
:103E6000F0BD00005033002038390020F0B52A4C56
:103E7000E06D0126002504F18007012806D0206F9F
:103E8000C0B101280DD0022814D10FE0E56507F07C
:103E9000D3FA224800F044F807F0BCFA65677E6167
:103EA00009E007F0C9FAE6643D6103E012F0D8FAD0
:103EB00012F086FA2567E16C00290BD01748B0385C
:103EC000012908D0022905D1E16E00EB0110C1687B
:103ED000491CC160F0BDE16E00EB0111CA68521CC3
:103EE000CA60E16E00EB01110A68B4F91E301A4491
:103EF0000A60B4F91E100029E16E00EB011005DD27
:103F00004168B4F91E2011444160F0BD8168B4F9E4
:103F10001E2011448160F0BDD032002008380020FE
:103F2000002101604160016141618160C1607047B1
:103F30002DE9F04700268AB0DFF85091B0464FF4E3
:103F4000807501243746069628460AF03FFE38B1B0
:103F5000D9F80403204203D028460AF02DFE264358
:103F60002D1D64007F1CADB2082FEDD34FF4BE743D
:103F700020460AF02BFE48B120460AF01DFE46F00E
:103F8000004606AA012100200AF002FE404D16F06C
:103F9000FF0F15D00127002437420DD009EB840113
:103FA000D1F81005D1F81015C0F3042055F82420DD
:103FB000C1F3014102B190477F00641C082CEBD390
:103FC000002E5FDA4FF0FF30CDF8108054E0281952
:103FD00010F8507F90F9000027F0C008401C3BD03B
:103FE00007A9404609F0C8F810B34FEA97194046B0
:103FF00004F0EEF955F820701FB1B9F1030F03D0AA
:1040000006E0B9F1030F27D104A9404609F0BCF836
:104010004FF0A04101EB8800D0F8000706A9C0F3DB
:10402000014A404609F0A8F818B1BAF1020F03D0CE
:1040300012E0BAF1030F0FD1B9F1030F08D1BAF1B1
:10404000020F1DD0022140460AF071FD761CF6B227
:1040500017B149464046B847641C042CB7D3002E1C
:1040600010D06A46012100200AF092FD06990098BE
:10407000884207D006900498002634460790A6E7A9
:104080000321E0E70AB0BDE8F087000000600040CF
:104090009C4F002030B51F4D93B0A88F05F18001D3
:1040A0004C6BA080AA20E080698E21816081207302
:1040B000AF20607318484068E0813C216846FDF7F6
:1040C0003FFC02208DF8000000208DF80200062041
:1040D0008DF803001120ADF840004FF4FA60ADF800
:1040E0003C000FA809901194002269460B4801F08A
:1040F0002CFF20B10AA240F6DE31FCF78BF8E87AFB
:104100000CF0BEFC0548697AF43801F02CF813B0C5
:1041100030BD0000D0320020083800208C3A00204A
:104120002E2E5C5372635C6D61696E2E630000001D
:1041300042F2107190FBF1F390FBF1F201FB1303DB
:104140004FF47A7193FBF1F3120442EA033290FBCD
:10415000F1F301FB1303642193FBF1F342EA032221
:1041600090FBF1F301FB13030A2193FBF1F342EA05
:10417000031290FBF1F301FB1300104370470000A2
:1041800070B54FF48076304609F0CEFA114CB50583
:1041900060B1304609F0CFFA0120C5F80803607914
:1041A00020B9012060712168002088474FF4827691
:1041B000304609F0B9FA00280AD0304609F0BBFAB7
:1041C0000220C5F808032168BDE8704001200847B7
:1041D00070BD0000003600200149024807F016BA01
:1041E0008450002000C001400149024807F00EBA87
:1041F0008C50002000100240064882B0002101606F
:1042000000680090044800680449C0B2496802B0E0
:104210000847000000D1004008D5004010360020BB
:1042200002490248091F09680068084760360020F3
:104230002DE9FE434FF4827840460BF0A9F94C4F2C
:1042400000254C4C012600B340460BF0A9F994F828
:104250002E0010B194F82F10D1B18DF80050616884
:1042600001912189ADF80810E26832B1218B618398
:1042700062602181E56010B102E0257400E03E60DB
:1042800021686846884784F82F5094F82E0060B360
:104290004FF4807738460BF07BF930B338460BF09B
:1042A0007FF9628B94F82D108A420AD9A2EB0100A3
:1042B00080B260832289A2EB0000626802EB4000BA
:1042C00005E007D1E06828B184F82F6065830BF022
:1042D0004DF904E08A4202D184F82F60658340469C
:1042E0000BF05EF92248001D06604FF488773846CF
:1042F0000BF04EF948B138460BF052F92574022004
:104300008DF800002168684688474FF48A77384660
:104310000BF03EF928B138460BF042F92574BDE8A0
:10432000FE834FF000484FF48C7967691DE000BFB1
:10433000B7FA87F028FA00F109EB80058F43284689
:104340000BF026F988B128460BF02AF9A5F58C75F3
:10435000E8088DF8040045F38000401C8DF80060EB
:104360008DF80500216868468847002FE0D1D6E720
:104370000070004094500020F8B51248124E0446D8
:104380004FF48C710BF047FC00281AD00025C4F8BC
:104390001851D4F818010090F07F3446FF2806D059
:1043A000A17F11B10AF0D4FB01E00AF0DFFB6577D1
:1043B0002572D4E9002101B004F10800BDE8F04005
:1043C0001047F8BD003000404850002030B58FB095
:1043D00005461C216846FDF7B3FA00249DF800004D
:1043E000019440F00A008DF80000039404940594B1
:1043F000069495F87C008DF836004AF63D00ADF83D
:1044000034000C949DF83000142120F00F00401C63
:1044100020F0F00010308DF830009DF8310020F0D1
:104420000F00401C20F0F00010308DF831009DF896
:10443000320020F00600801C20F0100040F009003F
:104440008DF8320007A8FDF77BFA0DA807900CA89D
:1044500008900120ADF824000420ADF82640ADF806
:1044600028000B94B5F87A002B4607AA6946AADF04
:104470000FB030BD044880F836100449012088711F
:1044800003498872704700003041002050380020F6
:10449000D032002030B58FB005461C216846FDF7AC
:1044A0004FFA00249DF80000019440F00A008DF8B6
:1044B0000000039404940594069495F87C008DF80C
:1044C00036004EF2E820ADF834000C949DF8300030
:1044D000142120F00F00401C20F0F00010308DF867
:1044E00030009DF8310020F00F00401C20F0F0005B
:1044F00010308DF831009DF8320020F00600801C4D
:1045000020F0100040F009008DF8320007A8FDF7F8
:1045100017FA0DA807900CA808900120ADF8240008
:104520000420ADF82640ADF828000B94B5F87A00C9
:1045300005F1080307AA6946AADF0FB030BD0000E5
:10454000044880F8371004490120887103498872B3
:10455000704700003041002050380020D032002049
:1045600030B58FB005461C216846FDF7E9F90024F7
:104570009DF80000019440F00A008DF800000394BB
:1045800004940594069495F87C008DF8360049F261
:104590008A10ADF834000C949DF83000142120F0FE
:1045A0000F00401C20F0F00010308DF830009DF816
:1045B000310020F00F00401C20F0F00010308DF88A
:1045C00031009DF8320020F00600801C20F0100021
:1045D00040F009008DF8320007A8FDF7B1F90DA8E9
:1045E00007900CA808900120ADF824000420ADF835
:1045F0002640ADF828000B94B5F87A0005F11003B9
:1046000007AA6946AADF0FB030BD0000044880F851
:1046100038100449012088710349887270470000EE
:104620003041002050380020D032002030B58FB00B
:1046300005461C216846FDF783F900249DF800001B
:10464000019440F00A008DF800000394049405944E
:10465000069495F87C008DF836004CF22210ADF8E7
:1046600034000C949DF83000142120F00F00401C01
:1046700020F0F00010308DF830009DF8310020F06F
:104680000F00401C20F0F00010308DF831009DF834
:10469000320020F00600801C20F0100040F00900DD
:1046A0008DF8320007A8FDF74BF90DA807900CA86C
:1046B00008900120ADF824000420ADF82640ADF8A4
:1046C00028000B94B5F87A0005F1180307AA69468B
:1046D000AADF0FB030BD0000044880F8391004494B
:1046E0000120887103498872704700003041002022
:1046F00050380020D032002030B58FB005461C2144
:104700006846FDF71DF900249DF80000019440F073
:104710000A008DF80000039404940594069495F81B
:104720007C008DF8360042F60650ADF834000C944B
:104730009DF83000142120F00F00401C20F0F00004
:1047400010308DF830009DF8310020F00F00401C33
:1047500020F0F00010308DF831009DF8320020F08C
:104760000600801C20F0100040F009008DF8320097
:1047700007A8FDF7E5F80DA807900CA80890012000
:10478000ADF824000420ADF82640ADF828000B94C5
:10479000B5F87A0005F1200307AA6946AADF0FB031
:1047A00030BD0000044880F83A10044901208871A7
:1047B00003498872704700003041002050380020C3
:1047C000D03200200BF076B9F0B5B84AB8494FF0B6
:1047D00080541368D4F830010978D4F83421451C8A
:1047E000C1F3031106D0844601270025BCF1060F52
:1047F0000BD102E003F0FF0CF6E7B4F82463DFF816
:10480000B4C2C6F30426CCF80060DEB2062E06D190
:10481000032904D1DFF8A4C2A74ECCF87460461C6B
:1048200004D08446BCF1060F0BD102E003F0FF0C6C
:10483000F8E7D4F84462DFF888C2C6F34236CCF811
:104840000060DEB2062E08D1032906D19D4ED6F8AF
:1048500000C02CF0807CC6F800C0461C04D0844602
:10486000BCF1060F0CD102E003F0FF0CF8E74FF0AB
:104870008046C6F80C51C6F81051914E361F35606F
:10488000DEB2062E08D1032906D1DFF834C2032692
:104890000CF1640CCCF80060DEB2062E11D10329B5
:1048A0000FD1DFF824C20526CCF80060864E78369A
:1048B0003760854E083635600CF1040C3F26CCF885
:1048C0000060461C06D084464FEA0206BCF1060F83
:1048D0007ED103E003F0FF0C0E46F7E7032E7DD0F8
:1048E000042E7BD0794E3668DFF8E4C1CCF8006046
:1048F000764E361D36680CF1040CCCF80060734E11
:10490000083636680CF1040CCCF800606F4E0C369B
:1049100036680CF1040CCCF800606C4E103636682A
:104920000CF1040CCCF80060684E143636680CF1BB
:10493000040CCCF80060654E18363668DFF890C17C
:104940000CF1200CCCF80060604E1C3636680CF17F
:10495000040CCCF800605D4E203636680CF1040C77
:10496000CCF80060594E243636680CF1040CCCF8B3
:104970000060564E283636680CF1040CCCF8006006
:10498000524E2C3636680CF1040CCCF800604F4EB9
:1049900030363668DFF838C10CF1400CCCF80060D6
:1049A0004A4E343636680CF1040CCCF80060474EA1
:1049B000383636680CF1040CCCF80060434E3C36B7
:1049C00036680CF1040CCCF80060404E403600E034
:1049D00004E036680CF1040CCCF80060461C05D0ED
:1049E0004FEA000CBCF1060F09D102E003F0FF0C06
:1049F000F8E7D4F85842374E04F04F043460441CB2
:104A000003D00346062B09D101E0DBB2FAE73249B5
:104A10000B68DB0702D06FF001030B6006280AD198
:104A2000032A08D0042A06D0052A04D02B4801689E
:104A300041F48061016023487438016841F47001D9
:104A40000160BFF34F8FBFF36F8F4FF01021D1F88C
:104A50000002002803DBD1F80402002822DA204AF1
:104A6000176020480368002BFCD01523C1F80032E2
:104A70000468002CFCD0C1F8043201680029FCD085
:104A8000156001680029FCD0BFF34F8F0D48F03846
:104A90000168154A01F4E06111430160BFF34F8FD3
:104AA00000BFFDE7124911480860F0BDE00F00F0BB
:104AB000E80F00F0403501400DF0ADBA00C00740EE
:104AC0003C050040FCED00E01056004004040010DE
:104AD00020C50040E40E0040000400403C170040A8
:104AE00004E5014000E401400400FA050090D00311
:104AF00024370020014800680047000008360020E5
:104B000038B5064C20680025002805D004484068C8
:104B1000804725602068009038BD000000010140FA
:104B20001836002002E008C8121F08C1002AFAD176
:104B300070477047002001E001C1121F002AFBD11D
:104B4000704700000121202803DA81400548014018
:104B500003E0402802DA2038814009B10120704783
:104B600000207047FC06FFBD2DE9F843804643F264
:104B7000020669B969460DF0CFFCB04204D018B105
:104B800028A2B121FBF746FB9DF80000800746D420
:104B9000002140460DF0CAFC050040D0112D3ED04A
:104BA0002F483049401AC708022000EB07440D2D5A
:104BB0000AD00B2D1DD0B5421FD12B4920464246AD
:104BC000BDE8F8430AF002BA2046424627490AF0F7
:104BD000FDF91321404676DF002820D00BF046F87F
:104BE000024601B020464346BDE8F04320A10AF04A
:104BF000F4B9204642462C49E2E728460BF036F845
:104C00000246012000EB0740434628A10AF0E5F9DF
:104C10002846BDE8F84303A2E021FBF7FBBABDE854
:104C2000F88300002E2E5C2E2E5C636F6D706F6E0D
:104C3000656E74735C626C655C706565725F6D61F6
:104C40006E616765725C706565725F6D616E6167EC
:104C500065725F68616E646C65722E6300000000AF
:104C6000C82D0500802D05009C13050028130500A4
:104C700073645F626C655F6761705F646973636FC3
:104C80006E6E65637428292072657475726E656432
:104C9000202573206F6E20636F6E6E5F68616E6497
:104CA0006C652025642E0000E813050041737365D0
:104CB0007274696E672E20706D5F636F6E6E5F73C6
:104CC000656375726528292072657475726E6564F6
:104CD000202573206F6E20636F6E6E5F68616E6457
:104CE0006C652025642E00002B4810B5416808290A
:104CF00050D22A490B68826802EB420401F170022B
:104D000042F834304B68846804EB440402EBC4047A
:104D100063608B68846804EB440402EBC404A36002
:104D2000CB68846804EB440402EBC404E3600B69C1
:104D3000846804EB440402EBC40423614B69846877
:104D400004EB440402EBC402536101F13002136826
:104D50000C682344136053684C6823445360936881
:104D60008C6823449360D368CC682344D360136970
:104D70000C6923441361536949691944516181687D
:104D8000491C81608168082901D300218160416844
:104D9000491C416010BD000050330020083800203D
:104DA00010B560B159B102780B785208B2EB530FCD
:104DB00005D10622401C491CFCF7D4FD08B1002097
:104DC00010BD012010BD800701D0002070470120D8
:104DD0007047C3688B4206D811440069491E81425E
:104DE00001D8012070470020704790F82400012866
:104DF00001D01F207047EE20704710B5012202211C
:104E0000002002F0BBFE08B1072810D107220221C2
:104E1000012002F0B3FE08B1072808D100210A22C0
:104E2000084602F0ABFE08B1072800D1002010BDF3
:104E300000B5ABB0AC216846FCF782FD02208DF8CE
:104E4000000000218DF802100622ADF810008DF848
:104E500003201E48059001208DF87C004FF49670C9
:104E6000CDE922011948AC30818047F27771C180C9
:104E700044F24441018145F255514181AC21017315
:104E8000417343F23331C181114829900F4869467B
:104E9000BE3018900F4801F0ABF820B10EA240F6DA
:104EA0004531FBF7B7F90B48042290F85410012064
:104EB00077DF20B108A240F64831FBF7ABF90121BA
:104EC000044801F092F82BB000BD0000A63300208A
:104ED000110B04008C3A00202E2E5C5372635C6D23
:104EE00061696E2E6300000010B588B10F4810494B
:104EF000401AC008032101EB00400EA10AF062F83D
:104F00000EF0E0F8002810D00EA240F2F92108E0DF
:104F10000321104801F03EF9002806D009A240F212
:104F20000B31BDE81040FBF775B910BD782E0500B8
:104F3000802D0500457261736520626F6E64732178
:104F4000000000002E2E5C5372635C6D61696E2E52
:104F5000630000008C3A002070B58CB015460E46F8
:104F600000236C46C3F10F01415CE1545B1C102B24
:104F7000F8D30D2104F11000FCF7E2FC0020C0F191
:104F80000F02315C2244401C11740328F7D3684699
:104F900046DF0020C0F10F01214491F82010295470
:104FA000401C0328F6D30CB070BD00000149C9783D
:104FB00001F0E6BA7C35002010B504468378827A89
:104FC00041780078C2DF002813D123796279E18823
:104FD0002078D3DF00280CD1E1782078CDDF0028BD
:104FE00007D1A178C90704D12189002901D02078EF
:104FF000D1DF10BD10B5174990F82C200B789A42DC
:1050000026D1497809B1402922D190F82D000728EE
:105010000ED005DC012810D0022819D10B200DE09C
:10502000082803D0802813D1072007E0012005E0DD
:10503000BDE8104000200AF0B9B9002002F0B8FD28
:10504000002805D0BDE8104003A27C21FBF7E2B8A0
:1050500010BD0000203700202E2E5C2E2E5C636FCA
:105060006D706F6E656E74735C616E745C616E748E
:105070005F73746174655F696E64696361746F7294
:105080005C616E745F73746174655F696E6469639B
:1050900061746F722E63000010B50C460AF04EF971
:1050A000042C04D8BDE81040014800F027B810BD1A
:1050B0009839002082B00A7802700022C260026132
:1050C00042610092BDF8003003839DF80230837680
:1050D000C261084602B0FFF76FBF04C940F81C2B3D
:1050E0000EC90EC0002140F8103C40F8201C40E9D9
:1050F0000611A0F10C01103805F011BF70B58369DD
:105100004FF47041B1FBF3F485684FF4C056FC35A1
:105110008560D0E90421921941F10001C0E9042120
:105120004E0456EAD23107D06D1C8560018A0022F8
:10513000C1F30E01C0E90412B5FBF4F202FB04F165
:10514000002A0FD005686B730568EB890B44EB816F
:1051500005681B1BEB8303681C7B22441A7382685F
:10516000511A816070BD816170474A88FF230370C6
:1051700043708370C270120A02710A7842714978D2
:10518000817170470A680270130A4370120C8270B2
:1051900008460CF039BA4A880B7803704270120A3C
:1051A000827008460CF07ABA0A7802704A78427027
:1051B0008A78827008460CF0B5BA4A880B7803707A
:1051C0004270120A827008460CF006BB024608467E
:1051D00092F82C100378994205D192F82D100329EA
:1051E00001D100F01FB8704730B4936883605368F2
:1051F000436014789C7052785A700CB1012200E020
:105200000222DA7000221A7101221A7030BCFFF7F4
:1052100051BF10B5044600F005F820780021C4DF26
:1052200010BD00001CB5044669460FF087FC2078CD
:105230006A460821C7DF002803D002A2EE21FAF750
:10524000E9FF1CBD2E2E5C2E2E5C636F6D706F6EA1
:10525000656E74735C616E745C616E745F70726FA6
:1052600066696C65735C616E745F68726D5C616EBB
:10527000745F68726D2E630002480169491C016108
:1052800070470000F03900200149CCDF7047000072
:105290001037002006490020497819B1102903D0A1
:1052A000402904D1012000E0022002F081BC7047B7
:1052B00020370020024A10705170002002F078BCA4
:1052C0002037002070B50024064D06E068680121F3
:1052D00010F834000AF034FD641C28788442F5D3B9
:1052E000002070BD20360020F8B516460C46054655
:1052F0000A2A01D20720F8BD0AF01CFE18B90AF0EC
:10530000E3FD0028F7D1134F102113487D603C7056
:10531000BE60FCF715FB0020C7E904000F4E0DE04E
:1053200005EBC4003168009181788DF80110007898
:105330000B4A69460AF056FD0028DCD1641EE4B22F
:10534000EED2BDE8F84005480021064A001D00F0F5
:1053500041B9000020360020E8500020F8E30400A6
:10536000A5AC0300BD900300FEB515460E460746EA
:1053700072B609F0D9FE00BF09F00AFD0028FBD182
:105380002249234A0120891AC90800EB0144012F50
:1053900023D06FF48050381822D0B0F5405F24D06D
:1053A0006FF44051C84206D12B88204619A16A6883
:1053B00009F013FE04E0204632461DA109F006FE66
:1053C00021480068C00700D000BE2A4603B031461D
:1053D0003846BDE8F04000F079B820461BA101E056
:1053E000204622A109F0EEFDEAE7A8680AF03EFC9B
:1053F0000346D5E90001CDE900100296204624A11C
:10540000AA6809F005FE20462BA1EBE7782E0500DF
:10541000802D0500415353455254494F4E2046417B
:10542000494C45442061742025733A2575000000DD
:10543000554E4B4E4F574E204641554C54206174AB
:105440002030782530385800F0ED00E0534F4654B6
:105450004445564943453A20415353455254494FD8
:105460004E204641494C454400000000534F4654ED
:105470004445564943453A20494E56414C494420FB
:105480004D454D4F52592041434345535300000071
:105490004552524F52202575205B25735D20617463
:1054A0002025733A25750D0A50432061743A203047
:1054B0007825303878000000456E64206F662065DE
:1054C00072726F72207265706F72740008B501237A
:1054D0008DF800309DF80030144B186059609A60C8
:1054E0006FF48041401807D001280FD1DA60D868E6
:1054F00000889861D86807E01A6118698068586167
:1055000018690068986118694068D8611868586817
:105510009868D868186958699869D86972B600BFE0
:105520009DF800000028FBD162B608BDF8500020AD
:1055300010B502280ED108480849401AC1080320B6
:1055400000EB0140044606A109F03CFD204610A1F5
:1055500009F038FD012010BD782E0500802D0500D2
:10556000506F776572206D616E6167656D656E74F1
:105570002077616E747320746F2072657365742078
:10558000746F20444655206D6F64652E0000000046
:10559000506F776572206D616E6167656D656E74C1
:1055A00020616C6C6F77656420746F207265736521
:1055B0007420746F20444655206D6F64652E000082
:1055C000401A20F07F407047014803F012BE0000EF
:1055D000403600203AB100680129426100D0002124
:1055E00001610020704707207047000038B511485E
:1055F00008235822416800910F49006807F0A1FC78
:10560000002815D10D4A69460D4803F0F7FD040046
:105610000ED101210A4803F068FE0123094A194608
:10562000074803F0BEFD06490120083908702046EE
:1056300038BD000000E40400285100208D41040022
:1056400040360020FFFF7F0070B50446007F0D4606
:1056500008B1002070BDA26105F02EFA401941F199
:105660000001C4E90201206900B125612146BDE8BD
:105670007040002010F0E4BB0146002008770120B4
:1056800010F0DEBB30B5EFF3108172B60D4A9468AE
:10569000012324B10370002900D162B630BD9360AC
:1056A0004FF0E023D3F88051074C25401560C3F834
:1056B0008041D3F8844154605A17C3F884210022F2
:1056C0000270E8E780510020FC06FFBD0B498A68A4
:1056D000002A11D000280FD1EFF3108072B60B68AA
:1056E0004FF0E022C2F800314B68C2F804310022CA
:1056F0008A60002800D162B6704700008051002007
:1057000010B51A4C00224FF400412068FFF79CFFAF
:1057100020B1174A40F6C101FAF77CFD002241F2A0
:10572000D351E068FFF790FF20B1114A40F6CA015B
:10573000FAF770FD00224FF4FA612069FFF784FF49
:1057400020B10B4A40F6CE01FAF764FD4FF4005148
:1057500000226068FFF778FF002806D0BDE81040FF
:10576000034A40F6D401FAF755BD10BDB0DF04007E
:10577000444F03002DE9F041064608680C46411CE1
:105780004FF0A0474FF0010506D005FA00F1C7F829
:105790000815206809F0ADF96068411C02D00021AD
:1057A00009F08BF93168A069C1F82405607D227D7C
:1057B00031681043C1F86C05D4E900123068C0F8B4
:1057C0001425C0F80C15207D012815D1A068411CB6
:1057D00002D0002109F071F9E068411C05D0854034
:1057E000C7F80855E06809F084F9D4E90212306876
:1057F000C0F80825C0F81015BDE8F0812DE9F0418A
:10580000064608680C46411C4FF0A0474FF00105C2
:1058100006D005FA00F1C7F80815206809F073F9F9
:105820006068411C02D0002109F050F93168A0697C
:10583000C1F82405607D217D32680843C2F86C05FB
:10584000D4E900123068C0F80C15C0F81425207D8A
:10585000012815D1A068411C02D0002109F036F9B9
:10586000E068411C05D08540C7F80855E06809F09C
:105870004AF9D4E902123068C0F80825C0F81015BA
:10588000BDE8F08106F018BA2DE9FC5F04464FF040
:1058900008084FF00109694605F0CEFB02004F48A9
:1058A0004F49A0EB01004FEAD0014FF0020000EB9E
:1058B00001450AD010460AF0D9F902462846234687
:1058C000484909F08AFBBDE8FC9FDFF81CB1DBF812
:1058D0000000FFF7D1FE28B10AF0C8F902462846B9
:1058E00042A177E0FFF770FE484E3168FFF768FE8F
:1058F00000F0FCF90446FFF767FEDFF814A100276B
:10590000C6F8000007EB87000AEB8006B07C58B3AE
:105910000622711C0DF10100FCF724F818BB307C45
:105920004FF47A6101FA00F2B2F57A4F00DA401CC6
:10593000307400228140C817B260C20342EA51426B
:10594000C8034FF47A71401842F100014FF4FA6233
:105950000023FBF789FFF060A04200D80446012035
:1059600070744FF0000900E0B8467F1C082FC9D3BF
:10597000B9F1000F1FD0B8F1080F18D208EB880159
:105980000AEB810000990160BDF8041081809DF848
:10599000061081710021017481604FF48031C16073
:1059A0008C4200D30C4601214174817403E019A19B
:1059B000284609F007FB601C85D022461146DBF81B
:1059C0000000FFF741FE0028F6D00AF04FF902462A
:1059D0001AA1284609F0FAFA75E70000802D0500A3
:1059E000802D0500EC0A05006CE104006170705F19
:1059F00074696D65725F73746F70282920726574A5
:105A000075726E656420257300000000C0340020AC
:105A1000404800204E6F20737061636520746F20D2
:105A2000626C61636B6C69737420616E6F7468651E
:105A30007220706565722049440000006170705FDB
:105A400074696D65725F7374617274282920726560
:105A50007475726E6564202573000000024A00218F
:105A60000248FFF7B7BD0000795C03006CE1040059
:105A70002DE9FC410446694605F0DEFA70B10AF0F2
:105A8000F5F80246124813492346401AC00802217D
:105A900001EB0040104909F0A0FA11E00F4E00247C
:105AA0004FEA0D0704EB840006EB8005A87C50B19B
:105AB0000622691C781CFBF755FF20B9687C10B1E1
:105AC0000120BDE8FC81641C082CEBD30020F8E722
:105AD000802D0500802D0500EC0A050040480020BF
