:020000040000FA
:1000000000040020810A000015070000610A0000BA
:100010001F07000029070000330700000000000050
:10002000000000000000000000000000A50A000021
:100030003D070000000000004707000051070000D6
:100040005B070000650700006F07000079070000EC
:10005000830700008D07000097070000A10700003C
:10006000AB070000B5070000BF070000C90700008C
:10007000D3070000DD070000E7070000F1070000DC
:10008000FB070000050800000F0800001908000029
:10009000230800002D080000370800004108000078
:1000A0004B080000550800005F08000069080000C8
:1000B000730800007D080000870800009108000018
:1000C0009B080000A5080000AF080000B908000068
:1000D000C3080000CD080000D7080000E1080000B8
:1000E000EB080000F5080000FF0800000909000007
:1000F000130900001D090000270900003109000054
:100100003B0900001FB500F003F88DE80F001FBD8C
:1001100000F0ACBC40F6FC7108684FF01022401CA7
:1001200008D00868401C09D00868401C04D0086842
:1001300000F037BA9069F5E79069F9E7704770B554
:100140000B46010B184400F6FF70040B4FF0805073
:100150000022090303692403406943431D1B104621
:1001600000F048FA29462046BDE8704000F042BA47
:10017000F0B54FF6FF734FF4B4751A466E1E11E0DA
:10018000A94201D3344600E00C46091B30F8027B3B
:10019000641E3B441A44F9D19CB204EB134394B25D
:1001A00004EB12420029EBD198B200EB134002EBB2
:1001B000124140EA0140F0BDF34992B00446D1E952
:1001C0000001CDE91001FF224021684600F0F4FB58
:1001D00094E80F008DE80F00684610A902E004C8FB
:1001E00041F8042D8842FAD110216846FFF7C0FF7C
:1001F0001090AA208DF8440000F099F9FFF78AFFCB
:1002000040F6FC7420684FF01025401C0FD0206889
:1002100010226946803000F078F92068401C08D030
:100220002068082210A900F070F900F061F9A869AF
:10023000EEE7A869F5E74FF080500369406940F6A2
:10024000FC71434308684FF01022401C06D0086838
:1002500000F58050834203D2092070479069F7E788
:100260000868401C04D00868401C03D00020704778
:100270009069F9E70420704770B504460068C34DE3
:10028000072876D2DFE800F033041929631E250021
:10029000D4E9026564682946304600F062F92A46CE
:1002A0002146304600F031F9AA002146304600F0E0
:1002B00057FB002800D0032070BD00F009FC4FF46C
:1002C000805007E0201D00F040F90028F4D100F034
:1002D000FFFB60682860002070BD241D94E80700C3
:1002E000920000F03DFB0028F6D00E2070BDFFF715
:1002F000A2FF0028FAD1D4E901034FF0805100EBAE
:10030000830208694D69684382420ED840F6F8704E
:1003100005684FF010226D1C09D0056805EB8305B8
:100320000B6949694B439D4203D9092070BD55694A
:10033000F4E70168491C03D00068401C02D003E0C8
:100340005069FAE70F2070BD2046FFF735FFFFF731
:1003500072FF0028F7D1201D00F0F7F80028F2D135
:1003600060680028F0D100F0E2F8FFF7D3FE00F05B
:10037000BFF8072070BD10B50C46182802D0012028
:10038000086010BD2068FFF777FF206010BD41684E
:10039000054609B1012700E0002740F6F8742068FF
:1003A0004FF01026401C2BD02068AA68920000F065
:1003B000D7FA38B3A86881002068401C27D020688D
:1003C000FFF7BDFED7B12068401C22D026684FF051
:1003D0008050AC686D68016942695143A9420DD9EA
:1003E000016940694143A14208D92146304600F0E5
:1003F000B8F822462946304600F087F800F078F831
:100400007069D2E700F093F8FFF784FEF6E77069B1
:10041000D6E77669DBE740F6FC7420684FF01026DB
:10042000401C23D02068401C0CD02068401C1FD0EA
:100430002568206805F18005401C1BD027683879A5
:10044000AA2819D040F6F8700168491C42D001680A
:10045000491C45D00168491C3ED001680968491C07
:100460003ED00168491C39D000683EE0B069DAE747
:10047000B569DEE7B769E2E710212846FFF778FEA5
:100480003968814222D12068401C05D0D4F8001080
:1004900001F18002C03107E0B169F9E730B108CA63
:1004A00051F8040D984201D1012000E000208A4259
:1004B000F4D158B1286810B1042803D0FEE72846CB
:1004C000FFF765FF3149686808600EE0FFF722FE1C
:1004D00000F00EF87169BBE77169BFE7706904E06D
:1004E0004FF480500168491C01D000F0CBFAFEE7C0
:1004F000BFF34F8F26480168264A01F4E06111439B
:100500000160BFF34F8F00BFFDE72DE9F0411746B3
:100510000D460646002406E03046296800F054F8EF
:10052000641C2D1D361DBC42F6D3BDE8F08140F69B
:10053000FC700168491C04D0D0F800004FF48051D1
:10054000FDE54FF010208069F8E74FF080510A690F
:10055000496900684A43824201D810207047002050
:10056000704770B50C4605464FF4806608E0284693
:1005700000F017F8B44205D3A4F5806405F5805562
:10058000002CF4D170BD0000F40A0000000000202F
:100590000CED00E00400FA05144801680029FCD0C5
:1005A0007047134A0221116010490B68002BFCD0E0
:1005B0000F4B1B1D186008680028FCD0002010603D
:1005C00008680028FCD07047094B10B501221A605A
:1005D000064A1468002CFCD0016010680028FCD08A
:1005E0000020186010680028FCD010BD00E4014015
:1005F00004E5014070B50C46054600F073F810B9EB
:1006000000F07EF828B121462846BDE8704000F091
:1006100007B821462846BDE8704000F037B8000012
:100620007FB5002200920192029203920A0B000B06
:100630006946012302440AE0440900F01F0651F80C
:10064000245003FA06F6354341F82450401C8242F8
:10065000F2D80D490868009A10430860081D016827
:10066000019A1143016000F03DF800280AD00649C4
:1006700010310868029A10430860091D0868039A3F
:10068000104308607FBD00000006004030B50F4CED
:10069000002200BF04EB0213D3F800582DB9D3F8A1
:1006A000045815B9D3F808581DB1521C082AF1D3C3
:1006B00030BD082AFCD204EB0212C2F80008C3F8CD
:1006C00004180220C3F8080830BD000000E0014013
:1006D0004FF08050D0F83001082801D0002070473A
:1006E000012070474FF08050D0F83011062905D016
:1006F000D0F83001401C01D0002070470120704725
:100700004FF08050D0F830010A2801D00020704707
:100710000120704708208F490968095808471020B0
:100720008C4909680958084714208A4909680958FA
:100730000847182087490968095808473020854923
:100740000968095808473820824909680958084744
:100750003C20804909680958084740207D490968BC
:100760000958084744207B49096809580847482028
:1007700078490968095808474C207649096809589A
:10078000084750207349096809580847542071499F
:1007900009680958084758206E49096809580847E8
:1007A0005C206C4909680958084760206949096854
:1007B00009580847642067490968095808476820AC
:1007C00064490968095808476C2062490968095852
:1007D000084770205F4909680958084774205D4937
:1007E00009680958084778205A490968095808478C
:1007F0007C205849096809580847802055490968EC
:10080000095808478420534909680958084788202F
:1008100050490968095808478C204E490968095809
:10082000084790204B4909680958084794204949CE
:10083000096809580847982046490968095808472F
:100840009C204449096809580847A0204149096883
:1008500009580847A4203F49096809580847A820B3
:100860003C49096809580847AC203A4909680958C1
:100870000847B0203749096809580847B420354966
:10088000096809580847B8203249096809580847D3
:10089000BC203049096809580847C0202D4909681B
:1008A00009580847C4202B49096809580847C82037
:1008B0002849096809580847CC2026490968095879
:1008C0000847D0202349096809580847D4202149FE
:1008D000096809580847D8201E4909680958084777
:1008E000DC201C49096809580847E02019490968B3
:1008F00009580847E4201749096809580847E820BB
:100900001449096809580847EC2012490968095830
:100910000847F0200F49096809580847F4200D4995
:10092000096809580847F8200A490968095808471A
:10093000FC2008490968095808475FF48070054998
:10094000096809580847000003480449024A034B54
:100950007047000000000020000B0000000B0000AA
:1009600040EA010310B59B070FD1042A0DD310C82C
:1009700008C9121F9C42F8D020BA19BA884201D97E
:10098000012010BD4FF0FF3010BD1AB1D30703D0C6
:10099000521C07E0002010BD10F8013B11F8014B7C
:1009A0001B1B07D110F8013B11F8014B1B1B01D198
:1009B000921EF1D1184610BD02F0FF0343EA032254
:1009C00042EA024200F005B87047704770474FF0A6
:1009D00000020429C0F0128010F0030C00F01B800C
:1009E000CCF1040CBCF1020F18BF00F8012BA8BF1A
:1009F00020F8022BA1EB0C0100F00DB85FEAC17CDE
:100A000024BF00F8012B00F8012B48BF00F8012B90
:100A100070474FF0000200B51346944696462039C1
:100A200022BFA0E80C50A0E80C50B1F12001BFF4A7
:100A3000F7AF090728BFA0E80C5048BF0CC05DF80D
:100A400004EB890028BF40F8042B08BF704748BF5B
:100A500020F8022B11F0804F18BF00F8012B7047CF
:100A6000014B1B68DB6818470000002009480A4951
:100A70007047FFF7FBFFFFF745FB00BD20BFFDE719
:100A8000064B1847064A1060016881F308884068E1
:100A900000470000000B0000000B000017040000DE
:100AA000000000201EF0040F0CBFEFF30881EFF3ED
:100AB0000981886902380078182803D100E0000015
:100AC000074A1047074A12682C3212681047000084
:100AD00000B5054B1B68054A9B58984700BD0000B0
:100AE0007703000000000020F00A0000040000006E
:100AF000001000000000000000FFFFFF0090D00386
:10100000F0180020F9F10200899200005FF102005F
:10101000899200008992000089920000000000007F
:1010200000000000000000000000000085F2020047
:10103000899200000000000089920000899200005F
:10104000EDF20200F3F202008992000089920000A2
:101050008992000089920000899200008992000024
:10106000F9F202008992000089920000FFF202006A
:101070008992000005F302000BF3020011F3020055
:1010800089920000899200008992000089920000F4
:1010900089920000899200008992000089920000E4
:1010A0008992000017F302008992000089920000E3
:1010B00089920000899200008992000089920000C4
:1010C0001DF30200899200008992000089920000BD
:1010D00089920000899200008992000089920000A4
:1010E0008992000089920000899200008992000094
:1010F0008992000089920000899200008992000084
:10110000899200008992000000F002F82EF063F846
:101110000AA090E8000C82448344AAF10107DA4552
:1011200001D12EF058F8AFF2090EBAE80F0013F013
:10113000010F18BFFB1A43F0010318471CE7020018
:101140003CE702000A444FF0000C10F8013B13F09A
:10115000070408BF10F8014B1D1108BF10F8015B10
:10116000641E05D010F8016B641E01F8016BF9D103
:1011700013F0080F1EBF10F8014BAD1C0C1B09D15A
:101180006D1E58BF01F801CBFAD505E014F8016BCC
:1011900001F8016B6D1EF9D59142D6D3704700005E
:1011A0000023002400250026103A28BF78C1FBD870
:1011B000520728BF30C148BF0B6070471FB500F011
:1011C0008FF88DE80F001FBD1EF0040F0CBFEFF36A
:1011D0000880EFF30980014A10470000AF4A000081
:1011E000401E00BF00BF00BF00BF00BF00BF00BF68
:1011F00000BF00BF00BF00BF00BF00BF00BF00BFF7
:1012000000BF00BF00BF00BF00BF00BF00BF00BFE6
:1012100000BF00BF00BF00BF00BF00BF00BF00BFD6
:1012200000BF00BF00BF00BF00BF00BF00BF00BFC6
:1012300000BF00BF00BF00BF00BF00BF00BF00BFB6
:1012400000BF00BF00BF00BF00BF00BF00BF00BFA6
:1012500000BF00BF00BF00BF00BFC1D1704700008A
:10126000401E00BF00BF00BF00BF00BF00BF00BFE7
:1012700000BF00BF00BF00BF00BF00BF00BF00BF76
:1012800000BF00BF00BF00BF00BF00BF00BF00BF66
:1012900000BF00BF00BF00BF00BF00BF00BF00BF56
:1012A00000BF00BF00BF00BF00BF00BF00BF00BF46
:1012B00000BF00BF00BF00BF00BF00BF00BF00BF36
:1012C00000BF00BF00BF00BF00BF00BF00BF00BF26
:1012D00000BF00BF00BF00BF00BFC1D1704700000A
:1012E0002DF076BF5E4800210170417010218170A1
:1012F000704770B5054616460C46022000F07AF994
:101300005749012008705749F01E0860564805608B
:10131000001F046070BD10B5022000F06BF9504949
:101320000120087051480021C0F80011C0F80411D4
:10133000C0F808114E494FF40000086010BD48483D
:101340000178D9B14B4A4FF4000111604749D1F8F7
:1013500000310022002B1CBFD1F80431002B02D039
:10136000D1F8081119B142704FF0100104E04FF0AC
:101370000101417040490968817002704FF000001E
:1013800000F038B910B5022000F034F934480122D9
:10139000002102703548C0F80011C0F80411C0F8EF
:1013A0000811026010BD2E480178002904BF407862
:1013B00070472E48D0F80011002904BF0220704762
:1013C000D0F8001100291CBFD0F80411002905D065
:1013D000D0F80801002804BF0120704700207047A2
:1013E0001F4800B50278214B4078C821491EC9B278
:1013F00082B1D3F800C1BCF1000F10D0D3F80001C6
:1014000000281CBFD3F8040100280BD0D3F8080132
:1014100050B107E0022802D0012805D002E00029DF
:10142000E4D1FFDF002000BD012000BD0C480178A1
:10143000002904BF807870470C48D0F800110029BB
:101440001CBFD0F80411002902D0D0F8080110B157
:101450004FF01000704708480068C0B270470000A5
:101460000800002010F5004008F5004000F00040A2
:1014700004F5014008F5014000F400404C4800210B
:1014800001704170704770B5064614460D46012044
:1014900000F0B0F847480660001D0460001D0560BC
:1014A00070BD70B5424901250D7040EA0241424AC3
:1014B00041F080711160414C0026C4F80461404A3B
:1014C0004FF040711160002802BFC4F8005225603F
:1014D00070BD012818BFFFDFC4F8006225604FF01F
:1014E00000703849086070BD3148017879B1344ADC
:1014F0004FF0407111603149D1F804210021002AD8
:1015000008BF417002D0304A12684270017000205A
:1015100000F070B826480178002904BF4078704771
:101520002648D0F80401002808BF70472648006804
:10153000C0B27047002808BF70472DE9F0471C482B
:101540000078002808BFFFDF1C4CD4F804010028F5
:1015500018BFBDE8F0874FF00209C4F804931B4F91
:101560003868C0F30018386840F010003860D4F8CC
:101570000401002804BF4FF400454FF0E02607D1D6
:10158000C6F880522DF0E0FDD4F804010028F7D011
:10159000B8F1000F03D1386820F010003860C4F8AB
:1015A0000893BDE8F0870549012088607047000076
:1015B0000B00002008F5004004F5004000F000405A
:1015C00008F5014004F5014000F4004010ED00E092
:1015D0004FF0E0224FF400400021C2F88001BFF339
:1015E0004F8FBFF36F8F174801600160164990025B
:1015F00008607047134900B500220A600A60124B68
:101600004FF060721A60002808BF00BD0F4A104BEF
:10161000DFF840C001280CD002281CBFFFDF00BD4E
:10162000032008601A604FF4000000BFCCF80000EF
:1016300000BD022008601A604FF04070F6E700B568
:10164000FFDF00BD00F5004008F50140F402002076
:1016500014F5004004F50140012804BF41F6A470D0
:101660007047022804BF41F28830704700B5FFDFA1
:1016700041F6A47000BD10B5F84800240121447063
:10168000047044728472C17280F82540C46284631D
:1016900018302DF05FFEF249601E0860091D0860D9
:1016A000091D0C60091D0860091D0C60091D0860FA
:1016B000091D0860091D0860091D0860091D0860F2
:1016C000091D0860091D0860091D0860091D0860E2
:1016D00010BDE448016801F00F01032904BF012097
:1016E0007047006800F00F00042804BF0220704714
:1016F00000B5FFDF012000BD012812BF0228002035
:10170000704700B5FFDF002000BD012804BF28207E
:101710007047022804BF1820704700B5FFDF28205B
:1017200000BD70B5CF48016801F00F01032908BF63
:10173000012409D0006800F00F00042807BF02242C
:101740001821FFDF012400D02821C448C26A806A22
:10175000101A0E18082C08BF4EF6283515D0204652
:10176000042C08BF4EF628350BD0012808BF41F6DF
:10177000A47506D0022C1ABFFFDF41F6A47541F212
:101780008835012C14D0022C00D0FFDF012C0FD0A3
:10179000022C0EBF41F28830FFDF41F6A470281AF8
:1017A0004FF47A7100F2E730B0FBF1F0304470BDD5
:1017B00041F6A470F3E710B5AB49026801F11804D3
:1017C0000A6342684A63007A81F83800207E48B193
:1017D000207F01F056F9A07E011C18BF0121207F57
:1017E00001F03BF9607E002808BF10BD607F01F06A
:1017F00048F9E07E011C18BF0121607FBDE8104060
:1018000001F02BB930B500250446012904D0022986
:101810000CBF4FF08075FFDF45F4847040F48010FA
:101820009249086044F44030091D40F0007008609F
:1018300030BD30B500250446012904D002290CBF73
:101840004FF08075FFDF45F4847040F480108749C5
:10185000086044F44030091D40F00070086084487E
:10186000D0F80001002818BFFFDF30BD2DE9F0419E
:1018700002254FF0E02801240026C8F88051BFF36C
:101880004F8FBFF36F8F7B480660046003F0C6F98B
:10189000794F18B1386840F48060386003F077F908
:1018A00038B1386820F0770040F0880040F0004000
:1018B000386003F0A3F930B17048016821F47F412A
:1018C00041F4B05101606F496D48086003F096F92A
:1018D000624948B16C4881F8215005606C4A6B48F8
:1018E0001060121F6B4810604FF01020806CB0F138
:1018F000FF3F04D0684A136860F317431360674AD8
:1019000040F25B601060121F40F203101060101F65
:101910000460544A032010606148046091F821205B
:10192000002A14BF4FF4C0225E4A42F460225E4B8C
:101930001A605F4B5D4A1A601B1F5E4A1A6002689C
:1019400022F440720260026842F480720260C8F8B9
:101950008052474A1020C2F8040381F83160CE62F9
:10196000BDE8F0815448016821F0010141F0807127
:10197000016070473C4A0368C2F81A308088D083FF
:1019800002F1180001727047344B10B51A7A8A427E
:1019900008D101460622981C2DF0A2FA002804BFA7
:1019A000012010BD002010BD2C4890F82500704784
:1019B0002A4A517010707047F0B50546800000F15A
:1019C000804000F580508B88C0F820360B78D1F825
:1019D000011043EA0121C0F8001605F108000127B3
:1019E00007FA00F6354C002A04BF2068B04304D043
:1019F000012A18BFFFDF206830432060206807FA03
:101A000005F108432060F0BD00F0E4BE134890F8F3
:101A100032007047114890F834007047284AC17866
:101A2000116000682749000208607047252808BF38
:101A300002210ED0262808BF1A210AD0272808BF65
:101A4000502106D00A2894BF0422062202EB40014E
:101A5000C9B21D4A11601D49086070471804002072
:101A6000000E004010150040000400201415004036
:101A700000100040FC1F00403C1700404017004091
:101A80002C00008978170040601500404480004019
:101A90009CF50140281100408C150040381500408D
:101AA000501600400000040408F50140408000404A
:101AB000A4F501401011004074170040401600408A
:101AC000241500401C150040081500405415004026
:101AD0002DE9F047FE4CA17A012956D0022918BF02
:101AE000BDE8F087627E002A08BFBDE8F0870129C3
:101AF00050D0E17E667F0D1C18BF01255FF02401E8
:101B0000DFF8D0934FF00108C9F84C80DFF8C8A384
:101B10004718DAF80000B84228BFFFDF0020C9F8F4
:101B20004C01CAF80070300285F0010140EA015012
:101B300040F0031194F82000820002F1804202F587
:101B4000C042C2F81015E54901EB8001A07FC20038
:101B500002F1804202F5F832C2F81415E04BC2F8E7
:101B60001035E27FD30003F1804303F5F833C3F867
:101B70001415DC49C3F8101508FA00F008FA02F150
:101B80000843D9490860BDE8F087227E002AAED11B
:101B9000BDE8F087A17E267F002914BF012500251E
:101BA0001121ADE72DE9F041D04E804603200D46CE
:101BB000C6F80002C64F97F82100002814BF4FF462
:101BC000C020CB48C8490860284600F031FE0124F7
:101BD000B8F1000F03D0B8F1010F16D018E003F0F0
:101BE0000DF878B1C34A11685006022DD0F82003D1
:101BF0000CBFC0F30660C0F3062021F4FE4141EAA9
:101C000000201060BC72346002E00220B872746080
:101C1000B048C464B04800682946BDE8F04157E7C1
:101C20002DE9F0410D46B14907460320C1F80002F5
:101C3000A74C94F82100002814BF4FF4C020AC48F2
:101C4000A94E3060284600F0F3FD17B1012F1CD0DB
:101C500024E002F0D3FF78B1A6490A684806022DB5
:101C6000D0F820030CBFC0F30660C0F3062022F4B6
:101C7000FE4242EA002008600120A072A06B40F4FE
:101C80008010A0634FF4801007E00220A072A06BC8
:101C900040F40010A0634FF40010306005F090F89D
:101CA0002946BDE8F04113E72DE9F74F8F4C8046F8
:101CB00082B003200E46C4F80002854D95F821003D
:101CC000002814BF4FF4C0208948874F386004981B
:101CD00000F0AEFDDFF820A24FF00109B8F1000FCF
:101CE00047D0B8F1010F18BFFFDF5BD08348066013
:101CF000844983480860A86B40F40020A863D4F8A6
:101D000000824FF0100AC4F808A30025C4F800525E
:101D10007D484FF4802BC0F800B0C4F80051C4F8DF
:101D20000C51C4F81051C4F80451C4F81451C4F84B
:101D3000185102F063FF002818BFC4F828517348F7
:101D400000680090C4F80082C7F800B0C4F804A38B
:101D50004FF4002038605F48C0F84C905E4800683F
:101D6000B04228BFFFDF3046049905B0BDE8F04F10
:101D7000AEE602F043FF80B15E4A04981168530654
:101D80000228D3F820030CBFC0F30660C0F306207E
:101D900021F4FE4141EA00201060CAF8004085F8B5
:101DA0000A90A3E75A48CAF800000220A8729DE7EB
:101DB0002DE9F041464C0646002594F831001746BF
:101DC0008846002808BFFFDF16B1012E16D021E09B
:101DD00094F83100012808D094F830203946404664
:101DE00000F033FDE16A451814E094F830103A46EB
:101DF000404600F068FDE16A45180BE094F83100B8
:101E000094F8301001283A46404609D000F083FD8E
:101E1000E16A45183A4629463046BDE8F04143E7B5
:101E200000F033FDE16A4518F4E72DE9F84F2F4C37
:101E3000D4F8000220F00309D4F804034FF0100A8C
:101E4000C0F30018C4F808A30026C4F80062204DAF
:101E500095F82100002814BF4FF4C020244840F416
:101E6000602129480160A97A0127012902D00229AD
:101E700003D015E0297E11B912E0697E81B1A97FF6
:101E8000EA7F07FA01F107FA02F21143016095F8BF
:101E90002000800000F1804000F5C040C0F81065CF
:101EA000FF208DF80000C4F81061276105E000BF35
:101EB0009DF80000401E8DF800009DF8000018B14C
:101EC000D4F810010028F3D09DF80000002821E08C
:101ED00018040020008000404C8500400060004055
:101EE0004C8100401011004004F5014000100040FA
:101EF0000000040488150040ACF50140488500400E
:101F000048810040A8F5014008F501401811004043
:101F10000410004008BFFFDFC4F8106102F06EFE3D
:101F2000002818BFC4F828616E72AE72EF72C4F850
:101F30000092B8F1000F18BFC4F804A3BDE8F88FF1
:101F4000FF2008B58DF80000FB480021C0F81011F3
:101F50000121016105E000BF9DF80010491E8DF8C8
:101F600000109DF8001019B1D0F810110029F3D01D
:101F70009DF80000002808BFFFDF08BD0068EF499A
:101F800020F07F40086070474FF0E0210220C1F848
:101F90008001BFF34F8FBFF36F8F70474FF0E0208A
:101FA0000221C0F8801100F5C070BFF34F8FBFF35E
:101FB0006F8FC0F80011704710B490E81C10E04912
:101FC00081E81C10D0E90420C1E9042010BC70474E
:101FD0004FF0E0210220C1F800017047D949087094
:101FE0007047D9490860704770B5054604F0E8FEAF
:101FF000D64C2844E16A884298BFFFDF0120207454
:1020000004F0DEFE4119616194F8210040B10844FA
:102010006061C948D0F8001241F04001C0F80012D8
:10202000CB490020C1F84401CA4960690860A06B2F
:10203000C94940F48000A0634FF48000086070BD7F
:1020400070B5C24C054602202074C4480E46016893
:1020500001F00F01032908BF012207D0006800F03A
:102060000F0004280EBF0222FFDF012294F8310086
:1020700094F8301001281AD0284600F093FC6061D3
:1020800094F8210048B1616908446061AA48D0F819
:10209000001241F04001C0F80012AD490020C1F823
:1020A00044016169E06A0844AA49086070BD33468A
:1020B000284600F045FCE2E7A9494FF4800008609B
:1020C000A248816B21F48001816300210174704773
:1020D000C20002F1804202F5F832A24BC2F810357C
:1020E000C2F81415012181409B4801609748826B1A
:1020F000114381637047964801214160C16000210E
:10210000C0F84411934801609048C162704710B50F
:10211000044602F073FD00281CBF8C4880F8214063
:10212000914804608448D0F8001241F04001C0F8A2
:10213000001210BD804810B5D0F8001221F0400107
:10214000C0F8001202F05AFD8749002818BF02208B
:10215000086010BD7848D0F8001221F01001C0F8D6
:10216000001201218161704773480021C0F81C11E1
:10217000D0F8001241F01001C0F8001270476E490B
:1021800081B0D1F81C21012A1EBF002001B0704788
:10219000764A126802F07F02524202700020C1F8B3
:1021A0001C01734800680090012001B07047F0B531
:1021B00017460C00064608BFFFDF644D14F0010F00
:1021C0002F731CBF012CFFDF002E0CBF012002204B
:1021D0006872EC7201281CBF0228FFDFF0BD2DE9F8
:1021E000F84F58480078042828BFFFDFDFF86091D7
:1021F000D9F84C115A48554C00254FF00108D9B177
:10220000A17A012902D0022903D015E0217E11B95B
:1022100012E0617E81B1A17FE27F08FA01F108FA44
:1022200002F21143016094F82010890001F180410D
:1022300001F5C041C1F810554948A16B0160A56383
:10224000217C002019B1D9F84411012900D00021C6
:10225000A27A394F012A6CD0022A6BD0D7F810111C
:1022600001290CBF1021002141EA00064148016804
:1022700011F0FF0F03D0D7F81411012900D000216D
:1022800084F83210006810F0FF0F03D0D7F818015F
:10229000012800D0002084F833003748006884F813
:1022A0003400FFF780F8012818BF002084F83500BB
:1022B000C7F80051C7F80C51C7F81051C7F80451BE
:1022C000C7F81451C7F8185102F098FC002818BF3D
:1022D000C7F828512948006800901D48C0F84451AB
:1022E00027480068DFF86C900090D9F80000A062E1
:1022F00094F8211000291CBF401AA06221480068F0
:10230000E0621648016801F00F01032908BF0120AF
:1023100007D0006800F00F0004280EBF0220FFDF86
:10232000012084F83000A07A84F8310002284ED1D0
:1023300040E029E02FE00000001000403C15004084
:10234000000400200D0000200415004018040020A7
:10235000008000404485004004F501401015004015
:1023600008F5014004110040601500404815004088
:102370001C1100404016004010140040181100408D
:102380004481004040850040D7F80C01012814BF6B
:102390000020082062E7D7F80C01012814BF0020B4
:1023A0000220F74A1268012A14BF042200221043B7
:1023B000084353E7607850B1F2490968097808404A
:1023C000217831EA000008BF84F8248001D084F825
:1023D0002450DFF8B4A316F0020F06D004F0F0FC8E
:1023E000A16A081ADAF81010884716F0010F18BF12
:1023F0004FF0000B0ED000BF04F0E2FCE16ADAF807
:102400001420081A59469047E048007810F0010F50
:102410002FD10CE016F0020F18BF4FF0010BEBD1DB
:1024200016F0080F18BF4FF0020BE5D1ECE7DFF80C
:1024300054B3DBF80000007800F00F00072828BF35
:1024400084F8255015D2DBF80000062200F10901BE
:10245000A01C2CF045FD40B9207ADBF8001009786B
:10246000B0EBD11F08BF012001D04FF0000084F86D
:102470002500E17A4FF0000011F0020F1CBF16F0AA
:10248000020F16F0040F19D111F0100F1CBF94F8B1
:102490003320002A02D094F835207AB111F0080FC9
:1024A0001CBF94F82420002A08D111F0040F02D098
:1024B00094F8251011B116F0010F01D04FF0010072
:1024C000617A19B1A0B1FFF7B0FC17E094F82100D0
:1024D000002814BF4FF4C021AD49AE480160D7F8C1
:1024E000000220F00300C7F8000284F80B8005E02A
:1024F00001290AD0022918BFFFDF0FD016F0010F03
:1025000017D0DAF80000804723E0657284F80B806A
:1025100084F80A809621227B002007E0657284F807
:102520000B800220A072227B96210120FFF740FC45
:10253000E4E716F0020F05D0DAF8041028EA960056
:10254000884706E016F0080F18BFDAF8080025D013
:102550008047A07A022818BFBDE8F88F207C0028A9
:1025600008BFBDE8F88F8C49C1F8445102281DD03E
:10257000012818BFFFDFE16A6069884298BFFFDF6A
:10258000D4F81400C9F80000A06B844940F480001E
:10259000A0634FF480000860BDE8F88F16F0100FBC
:1025A00014BFDAF80C00FFDFD2D1D2E76169E06A2C
:1025B0000844E7E7F8B57A49044602208872012109
:1025C0002046FFF785FA774E04F13D003060724FE8
:1025D0000024C7F84441744DC5F80041C5F80C41CA
:1025E000C5F81041C5F80441C5F81441C5F81841B3
:1025F00002F004FB002818BFC5F828416B480068AA
:1026000000900120B8646A4800683168884228BF99
:10261000FFDFF8BD2DE9F84F614A88460126917A1F
:102620005C4F0024012902D0022903D015E0117E5D
:1026300011B912E0517E81B1917FD37F06FA01F189
:1026400006FA03F31943396092F82010890001F16A
:10265000804101F5C041C1F8104505460220907245
:1026600001212846FFF734FADFF8389105F13D00E3
:10267000C9F80000DFF820A1CAF844414A4DC5F866
:102680000041C5F80C41C5F81041C5F80441C5F832
:102690001441C5F8184102F0B1FA002818BFC5F876
:1026A0002841424800680090CAF8486040480068E5
:1026B000D9F80010884228BFFFDFB8F1000F1CBF17
:1026C0004FF400303860BDE8F88F022810B507D00D
:1026D00001280EBF42F6CE30FFDF41F66A0010BD82
:1026E00002F048FA30B902F052FA002808BF41F669
:1026F000583001D041F2643041F29A01084410BDD3
:10270000294910B50020C1F80002254890F82100A1
:10271000002814BF4FF4C0201D481E4908602649F8
:1027200024480860091D25480860091D24480860E0
:10273000091D24480860091D23480860091D234815
:102740000860012000F074F814494FF43810086054
:1027500010BD10494FF43810086070471C480168DC
:1027600003291BBF00680228012000207047184879
:1027700001680B291BBF00680A2801200020704750
:102780000014004004150040000400200D0000204B
:102790000000040408F501400080004004F50140F9
:1027A000180400204485004000100040181100402B
:1027B000488500401011004098F501400410004089
:1027C00044810040141000401C11004010100040D3
:1027D0005015004000B5864910F1080F08BFF820D9
:1027E00024D014DC10F1280F08BFD8201ED010F11F
:1027F000140F08BFEC2019D010F1100F08BFF02003
:1028000014D010F10C0F08BFF4200FD00CE010F121
:10281000040F08BFFC2009D0002818BF032805D0EA
:10282000042804BF086000BDFFDF00BD086000BDD4
:1028300000B57049012808BF032004D0022816BF44
:10284000FFDF042000BD086000BD70B505460C46E2
:1028500016461046FEF700FF022C08BF4FF47A71AF
:1028600005D0012C0CBF4FF4C86140F63401441868
:102870003046FEF741FF204449F6797108444FF491
:102880007A71B0FBF1F0281A70BD70B505460C46A0
:102890000846FFF71AFF022C08BF40F24C4105D052
:1028A000012C0CBF40F634014FF4AF5149F6CA6217
:1028B000511A08444FF47A7100F2E140B0FBF1F094
:1028C000281A801E70BD70B5064615460C4608468F
:1028D000FFF7FBFE022D08BF4FF47A7105D0012DE2
:1028E0000CBF4FF4C86140F63401022C08BF40F21F
:1028F0004C4205D0012C0CBF40F634024FF4AF52CD
:10290000891A084449F6FC6108444FF47A71B0FB17
:10291000F1F0301A70BD70B504460E460846FEF759
:102920009BFE05463046FEF7E7FE28444AF2AB31EF
:1029300008444FF47A71B0FBF1F0201A801E70BD8C
:102940002DE9F04107461E460D4614461046082A5A
:1029500016BF04284EF62830FEF77EFE07EB47012F
:10296000C1EBC71100EBC100022D08BF40F24C4182
:1029700005D0012D0CBF40F634014FF4AF5147187C
:102980002846FFF7A2FE381A4FF47A7100F6B730E6
:10299000B0FBF1F52046FEF7B8FE28443044401D58
:1029A000BDE8F08170B5054614460E460846FEF7B0
:1029B00053FE05EB4502C2EBC512C0EBC205304623
:1029C000FEF79AFE2D1A2046082C16BF04284EF654
:1029D0002830FEF741FE28444FF47A7100F6B730F4
:1029E000B0FBF1F52046FEF790FE2844401D70BD77
:1029F0000C1500401015004010B5FEF73CFEFEF728
:102A0000E7FDFEF76FFCBDE81040FEF737BD20285C
:102A100034BF01200020704701234FF0A04203FA89
:102A200000F00029D2F8101501EA000003D00028B8
:102A300008BF704703E000281CBF0020704701203A
:102A40007047012303FA00F04FF0A042002914BFA1
:102A5000C2F80805C2F80C057047012303FA00F01C
:102A60004FF0A042002914BFC2F80C05C2F80805B7
:102A700070474FF0A04101EB80000022C0F8002712
:102A800070474FF0A041012202FA00F0C1F818058A
:102A90007047000010B504460021012000F075F8D1
:102AA00000210B2000F071F80021082000F06DF8E3
:102AB0000421192000F069F804210D2000F065F8C8
:102AC00004210E2000F061F804210F2000F05DF8D1
:102AD0000421C84300F059F80621162000F055F8EB
:102AE0000621152000F051F8204604F0A5F92046F3
:102AF00005F058FB002010BDCF210180704710B5B4
:102B000004F0AAF9BDE8104005F061BB2748704702
:102B10002648704770B5054625480E460468244986
:102B200024480831086006F014FA41780F23012286
:102B3000002006F004FAC02D3146284602D306F0E4
:102B400021FA01E004F08AF91948001D046006F03A
:102B500000FA4178BDE8704010230122104606F0CB
:102B6000EEB9704710B506F0F4F941780D23012253
:102B7000002006F0E4F906F0ECF941781023012278
:102B8000BDE81040104606F0DAB94907090E0028E2
:102B900004DB00F1E02080F80014704700F00F0023
:102BA00000F1E02080F8141D7047000003F9004296
:102BB00010050240010000012DE9F04106461D48C4
:102BC0000C4605681B491C480831086006F0C1F92D
:102BD00041780F230122002006F0B1F9A6F1200070
:102BE000312801D3012009E0412E15D0134F94E87C
:102BF0000F0007EB860656F8806CB04720600D4842
:102C0000001D056006F0A5F94178BDE8F0411023EC
:102C10000122104606F093B906F09BF94178012293
:102C20001023104606F08BF920462CF083FAE5E7D6
:102C300006207047100502400100000168F3020001
:102C40002DE9F041044680074FF000054FF00106E2
:102C50000CD56B480560066001F0E0FF20B16948C3
:102C6000016841F48061016024F00204E0044FF047
:102C7000FF3705D564484660C0F8087324F48054D3
:102C8000600003D56148056024F08044E0050FD55D
:102C90005F48C0F80052C0F808735E490D60091D16
:102CA0000D605C4A04210C321160066124F48074CA
:102CB000A00409D558484660C0F80052C0F808730F
:102CC0005648056024F40054C4F38030C4F3C03186
:102CD000884200D0FFDF14F4404F14D050484660C3
:102CE000C0F808734F488660C0F80052C0F80873F7
:102CF0004D490D600A1D16608660C0F808730D60AE
:102D0000166024F4404420050AD548484660866091
:102D1000C0F80873C0F848734548056024F400649F
:102D200000F0FAFF4348044200D0FFDFBDE8F08125
:102D3000F0B50022202501234FEA020420FA02F117
:102D4000C9072DD051B2002910DB00BF4FEA51173F
:102D50004FEA870701F01F0607F1E02703FA06F69E
:102D6000C7F88061BFF34F8FBFF36F8F0CDB00BFDD
:102D70004FEA51174FEA870701F01F0607F1E027D6
:102D800003FA06F6C7F8806204DB01F1E02181F85E
:102D9000004405E001F00F0101F1E02181F8144D3C
:102DA00002F10102AA42C9D3F0BD10B5224C206045
:102DB000084600F05EFA2068FFF742FF2068FFF740
:102DC000B7FF00F03BF801F0FCF900F0A5FF00F0C0
:102DD000F0FE01F0E3FABDE8104000F0B5BB10B51D
:102DE000154C2068FFF72CFF2068FFF7A1FF00F0CB
:102DF00093FF00F0FFFA0020206010BD0A2070470A
:102E0000FC1F00403C17004000C0004004E50140AA
:102E1000008000400485004000D0004004D5004000
:102E200000E0004000F0004000F5004000B000402D
:102E300008B50040FEFF0FFD2400002010B55548E6
:102E400000F0D4FD00B1FFDF5248401C00F0CEFD81
:102E5000002800D0FFDF10BD2DE9F14F4E4E82B0AB
:102E6000D6F800B001274B4800F0C8FDDFF82481F8
:102E700020B9002708F1010000F0D6FD474C0025DD
:102E80004FF0030901206060C4F80051C4F80451F8
:102E9000029931602060DFF808A11BE0DAF8000039
:102EA000C00617D50E2000F068F8EFF3108010F080
:102EB000010072B600D001200090C4F80493D4F849
:102EC000000120B9D4F8040108B92CF03DF90098AC
:102ED00000B962B6D4F8000118B9D4F8040100288A
:102EE000DCD0D4F804010028CCD137B1C6F800B04A
:102EF00008F1010000F082FD11E008F1010000F08E
:102F00007DFD0028B6D1C4F80893C4F80451C4F874
:102F100000510E2000F031F81E4800F085FD002021
:102F2000BDE8FE8F2DE9F0438DB00D460646002426
:102F30000DF110090DF1200818E000BF04EB440763
:102F4000102255F8271068462CF015F805EB870776
:102F50001022484679682CF00EF86846FFF77CFF8F
:102F600010224146B8682CF006F8641CB442E5DB38
:102F70000DB00020BDE8F0836EE7002809DB00F00B
:102F80001F02012191404009800000F1E020C0F8BB
:102F9000801270472800002004E5004000E0004057
:102FA00010ED00E00B4A022111600B490B68002B69
:102FB000FCD0084B1B1D186008680028FCD00020BE
:102FC000106008680028FCD070474FF080504069BE
:102FD0007047000004E5014000E401400548064A4E
:102FE0000168914201D1002101600449012008607B
:102FF00070470000AC000020BEBAFECA40E50140A8
:103000002CFFFFFFDBE5B15100000300CF00FFFF05
:103010004C010000C1CF6A0088429922EECBC42740
:103020000DC23255DE68C74D0137069410B5EFF377
:10303000108000F0010472B6FD484178491C4170CF
:103040004078012801D100F009FC002C00D162B6C3
:1030500010BD70B5F64CA07848B90125A570FFF7F2
:10306000E5FF00F00CFC20B1002000F04CFA00203D
:1030700070BD4FF08040E570C0F80453F7E770B5BD
:10308000EFF3108000F0010572B6E94C607800B9EA
:10309000FFDF6078401E6070607808B900F0E2FBE6
:1030A000002D00D162B670BDE14810B5817821B124
:1030B0000021C1708170FFF7E2FF002010BD10B544
:1030C000044600F0DCFBDA498978084000D0012092
:1030D0002060002010BD10B5FFF7A8FF00F0CFFB67
:1030E00002220123D249540728B1D2480260236149
:1030F0000320087202E00A72C4F8043300208871C9
:1031000010BD2DE9F84FDFF828934278817889F8CF
:103110000420002689F80510074689F80660007823
:103120003546052812D2DFE800F01203050D0F0026
:1031300001260CE0FFF77AFFBF480168C907FCD001
:10314000022604E0BD4E02E0BD4E00E0FFDF00F0CD
:10315000A8FB4FF0010B4FF0804448B100F0A8FBF2
:10316000B04205D1304600F0A7FB0028FAD03CE081
:10317000C4F80CB0C4F80451B2490E604FF080514D
:10318000D1F84412AF4AC1F3423124321160AD4943
:103190003431C1F800B04FF0020AC4F804A3C4F8F7
:1031A00008B0A9480168C94341F3001101F10108C1
:1031B000016841F01001016002E000BF2BF0C4FF84
:1031C000D4F804010028F9D0304600F075FB00283F
:1031D000FAD0B8F1000F04D19B48016821F010012A
:1031E0000160C4F808A3C4F8045199F805004E46DC
:1031F00080B1387870B900F042FB804601F09AF94E
:103200006FF00042B8F1000F02D0C6E9032001E0E0
:10321000C6E9030288480068C00701D000F02BFB14
:10322000387810B13572BDE8F88F4FF01808C4F83F
:1032300008835F46C4F818B04FF42070ADF8000062
:10324000BDF80000411EADF80010F9D2C4F80C51D1
:10325000C4F810517648C01D00F0C8FB3570FFF768
:103260003AFF67617749307920310860C4F80483F8
:10327000D9E770B5050000D1FFDF4FF080424FF075
:10328000FF30C2F808030021C2F80011C2F804118F
:10329000C2F80C11C2F81011654C617000F0FBFA15
:1032A00010B10120A070607063480068C00701D0B1
:1032B00000F0E1FA2846BDE8704022E75C48007A59
:1032C000002800D0012070472DE9FC5F5F48D0F84E
:1032D00000905E4A5E49083211608406D4F8080105
:1032E00000B10120D4F8001111B14FF0010801E044
:1032F0004FF00008D4F8041101B101210191D4F874
:103300000C1101B101210091D4F8101101B101217A
:10331000474D8A4695F800B0002620B1C4F80861F0
:10332000012000F0F0F84248C01D00F067FB00B13A
:10333000FFDF0127B8F1000F10D0C4F80873E87858
:1033400018B1EE70002000F0DEF8287A022805D1CE
:10335000032028723748022101602761019808B1D3
:10336000C4F80461009850B1C4F80C61287A0328AD
:1033700000D0FFDF2F4806602F72FFF780FEBAF102
:10338000000F07D0C4F81061287A012801D100F09D
:1033900061F86761BBF1000F07D02E70287A012811
:1033A00001D1FFF798FEFFF76AFE2148C01D00F02B
:1033B0003BFB2649091DC1F80090BDE8FC9F1C4855
:1033C00010B5C01D00F01AFB194940B1012008706A
:1033D0004FF0E021C1F80002BDE8104026E6087A6F
:1033E000012801D1FFF777FE1148BDE81040C01D4C
:1033F00000F01ABB70B50E4CA07808B900F032FA94
:1034000001208507A861207A002603280AD100BF81
:10341000D5F80C0120B9002000F04EFA0028F7D1B1
:10342000C5F80C6126724FF0FF30C5F8080370BD77
:1034300010000020340C00400C0400400100020089
:10344000010003001805004010ED00E010050240E7
:103450000100000170B5134C6079F0B1012803D070
:10346000A179401E814218DA00F009FA054601F000
:1034700061F86179012902D9A179491CA1710DB1C5
:10348000216900E0E168411A022902DA11F1020F14
:10349000CDDC0DB1206100E0E060BDE870401AE6CF
:1034A000C5E700001000002070B526490A680AB37D
:1034B0000022154601244B685B1C4B60092B00D38E
:1034C0004D600E7904FA06F30E681E420FD0EFF33A
:1034D000108212F0010272B600D001220C689C43E7
:1034E0000C6002B962B649680160002070BD521CD0
:1034F000092AE0D3052070BD4FF0E0214FF4800091
:10350000C1F800027047EFF3108111F0010F72B69D
:103510004FF0010202FA00F20A48036842EA03028D
:10352000026000D162B6E7E7064800210160416011
:1035300070470121814003480068084000D0012005
:10354000704700002C000020B84900200870704728
:1035500070B5B74D01232B60B64B1C68002CFCD016
:10356000002407E00E6806601E68002EFCD0001DD7
:10357000091D641C9442F5D30020286018680028B7
:10358000FCD070BD70B5A94E0446AB4D3078022812
:1035900000D0FFDFAC4200D3FFDF7169A7480129EB
:1035A00003D847F23052944201DD03224271491C94
:1035B0007161291BC160A149707800F034F90028BD
:1035C00000D1FFDF70BD70B5984C0D466178884220
:1035D00000D0FFDF984E082D4BD2DFE805F04A04FB
:1035E0001E2D4A4A4A382078022800D0FFDF0320E7
:1035F0002070A078012801D020B108E0A068FFF772
:10360000D1FC04E004F1080007C8FFF7A1FF052082
:103610002070BDE8704001F038BE01F031FF014676
:10362000606802F079FEB04202D2616902290BD3D0
:103630000320FFF768FF12E001F022FF01466068F7
:1036400002F06AFEB042F3D2BDE870409AE72078FB
:1036500002280AD0052806D0FFDF04202070BDE82C
:10366000704000F0D6B8022000E00320FFF74BFFC7
:10367000F3E7FFDF70BD70B5054601F001FF6B4C4D
:1036800060602078012800D0FFDF6C4901200870BD
:103690000020087104208D6048716748C8600220CE
:1036A0002070607800F0BFF8002800D1FFDF70BD07
:1036B00010B55E4C207838B90220FFF73AFF18B9F0
:1036C0000320FFF736FF08B1112010BD5C4801F060
:1036D00056FE6070202804D0012020700020606118
:1036E00010BD032010BD2DE9F0471546044600EB40
:1036F00085000E46A0F10408FFF767FC4FF08051EB
:103700000A6900FB02F706EB8500001FB04201D2F8
:10371000012000E0002081461DB10869B5EB900F43
:1037200002D90920BDE8F087204601F087FAB0B938
:10373000A04514D3BC4201D2B84503D3414820442C
:103740007C2803D844EA0600800701D01020E9E76E
:10375000304601F073FA10B9B9F1000F01D00F2013
:10376000E0E7394839490068884205D02A463146A1
:103770002046FFF7EDFE1AE0FFF79AFF0028D1D1AF
:103780002A4800210561C0E90246817001F0FFF975
:1037900008B12F4801E04AF2F87068434FF47A719B
:1037A00000F2E730B0FBF1F01830FFF764FF0020C3
:1037B000B8E770B505464FF0805004696C43204669
:1037C00001F03CFA08B10F2070BDFFF7FEFBA842E4
:1037D00001D8102070BD1C481C490068884203D0E5
:1037E0002046FFF7DFFB10E0FFF762FF0028F1D172
:1037F0000E4801218460817001F0C9F908B11548B3
:1038000000E015481830FFF736FF002070BD00F0CB
:1038100019B910B5054C607801F013FE00B9FFDF4F
:103820000020207010BD02F0D7B800003400002046
:1038300004E5014000E40140105C0C005404002049
:10384000C735000080EFFFEFAC000020BEBAFECA13
:1038500050280500645E0100A85B0100012081077B
:10386000086070470121880741600021C0F80011FD
:1038700018480170704717490120087070474FF0D1
:103880008040D0F80001012803D0124800780028B9
:1038900000D00120704710480068C00700D0012008
:1038A00070470D480C300068C00700D001207047F9
:1038B0000948143000687047074910310A68D2037C
:1038C00006D509688907B1EB807F01D101207047D7
:1038D000002070474C000020080400403F490120B0
:1038E0000860704770B50D2000F059F83C4C00207E
:1038F000C4F800010125C4F804530D2000F060F85D
:1039000025604FF0E0216014C1F8000170BD10B5D2
:103910000D2000F044F83248012141600021C0F838
:103920000011BDE810400D2000F04AB82D4810B538
:1039300004682C492C480831086005F00AFB4178DE
:103940000C230122002005F0FAFA2549D1F80001E4
:1039500001280DD0FFDF2348001D046005F0F9FAAF
:10396000417810230122BDE81040104605F0E7BA67
:103970001A48001D00680022C0B2C1F8002100F002
:1039800092FCE8E710B51648D0F800110029FBD0EA
:10399000FFF7CCFFBDE810400D2000F011B8002863
:1039A0000DDB00F01F02012191404009800000F171
:1039B000E020C0F88011BFF34F8FBFF36F8F7047C7
:1039C000002809DB00F01F0201219140400980001E
:1039D00000F1E020C0F880127047000004D50040DC
:1039E00000D00040100502400100000100210170DC
:1039F000084670470146002008707047EFF31081B9
:103A000001F0010172B60278012A01D0012200E022
:103A100000220123037001B962B60AB10020704789
:103A20004FF400507047E9E7EFF3108111F0010FF8
:103A300072B64FF00002027000D162B600207047EB
:103A4000F2E7000010B5134C2060201D0160114802
:103A500010300260001D0360002010BD0E490A688E
:103A600048F202139A4302430A6070470A4A1168F7
:103A700048F2021301EA0300994311607047054BB5
:103A800002465B4210201344FC2B01D81160002039
:103A90007047000000060040C80602404C49096813
:103AA0000160002070474A490860002070470121EA
:103AB0008A0720B1012804D042F2040070479167C0
:103AC00000E0D1670020704742490120086042F2BF
:103AD0000600704708B504233E4A1907103230B17A
:103AE000C1F80433106840F0010010600BE010686A
:103AF00020F001001060C1F808330020C1F808016F
:103B0000354800680090002008BD011F0B2909D826
:103B1000304910310A6822F01E0242EA4000086073
:103B20000020704742F205007047000100F180401C
:103B3000C0F8041900207047000100F18040C0F86F
:103B4000081900207047000100F18040D0F80009FA
:103B5000086000207047012801D9072070471F4ADC
:103B600052F8200002680A430260002070470128D2
:103B700001D907207047194A52F8200002688A4389
:103B8000026000207047012801D907207047134ABE
:103B900052F82000006808600020704702001049B9
:103BA0004FF0000003D0012A01D0072070470A60BF
:103BB00070474FF080410020C1F808014FF0E0202D
:103BC000802180F800140121C0F800117047000026
:103BD0000004004000050040080100402CF40200F1
:103BE000780500406249634B0A6863499A42096854
:103BF00001D1C1F310010160002070475C495D4BA9
:103C00000A685D49091D9A4201D1C0F3100008609D
:103C1000002070475649574B0A68574908319A4265
:103C200001D1C0F3100008600020704730B5504B40
:103C3000504D1C6842F20803AC4202D0142802D254
:103C400003E0112801D3184630BDC3004B48184487
:103C5000C0F81015C0F81425002030BD4449454B6C
:103C60000A6842F209019A4202D0062802D203E011
:103C7000042801D308467047404A012142F8301019
:103C8000002070473A493B4B0A6842F209019A42C8
:103C900002D0062802D203E0042801D30846704768
:103CA000364A012102EBC00041600020704770B528
:103CB0002F4A304E314C156842F2090304EB800262
:103CC000B54204D0062804D2C2F8001807E0042840
:103CD00001D3184670BDC1F31000C2F800080020DF
:103CE00070BD70B5224A234E244C156842F2090378
:103CF00004EB8002B54204D0062804D2D2F80008B2
:103D000007E0042801D3184670BDD2F80008C0F3BC
:103D100010000860002070BD174910B50831184820
:103D200008601120154A002102EBC003C3F81015EA
:103D3000C3F81415401C1428F6D3002006E004280C
:103D400004D302EB8003C3F8001807E002EB800302
:103D5000D3F80048C4F31004C3F80048401C0628F8
:103D6000EDD310BD044906480831086070470000D3
:103D7000AC000020BEBAFECA00F5014000F00140D0
:103D80000000FEFF02000B464FF00000014620D06D
:103D9000012A04D0022A04D0032A0DD103E0012015
:103DA00002E0022015E00320072B05D2DFE803F034
:103DB0000406080A0C0E100007207047012108E0D5
:103DC000022106E0032104E0042102E0052100E0D5
:103DD000062101F0F2BA0000E248052181700021BD
:103DE000017041707047E0490A78012A05D0CA681D
:103DF0001044C860403802F049BA8A6810448860AC
:103E0000F8E7002819D00378D849D94A13B1012B13
:103E10000ED011E00379012B00D06BB943790BB1BF
:103E2000012B09D18368643B8B4205D2C0680EE048
:103E30000379012B02D00BB10020704743790BB1FD
:103E4000012BF9D1C368643B8B42F5D28068904264
:103E5000F2D801207047C44901220A70027972B178
:103E600000220A71427962B104224A718268523298
:103E70008A60C068C860BB4902208870704703220E
:103E8000EFE70322F1E770B5B74D04460020287034
:103E9000207988B100202871607978B10420B14E72
:103EA0006871A168F06800F069FFA860E0685230AE
:103EB000E8600320B07070BD0120ECE70320EEE75E
:103EC0002DE9F0410546022602F0B4F8006800B181
:103ED000FFDFA44C01273DB12878B8B1012805D0F7
:103EE000022811D0032814D027710DE06868C82873
:103EF00008D3042102F03BFA20B16868FFF773FF92
:103F0000012603E0002601E000F014F93046BDE888
:103F1000F08120780028F7D16868FFF772FF002849
:103F2000E2D06868017879B1A078042800D0FFDF7A
:103F300001216868FFF7A7FF8B49E07800F003F9DB
:103F40000028E1D1FFDFDFE7FFF785FF6770DBE7E0
:103F50002DE9F041834C0F46E178884200D0FFDF25
:103F600000250126082F7DD2DFE807F0040B282862
:103F70003D434F57A0780328C9D00228C7D0FFDFA0
:103F8000C5E7A078032802D0022800D0FFDF042074
:103F9000A07025712078B8BB0020FFF724FF72487D
:103FA0000178012906D08068E060FFF75FFD20619D
:103FB000002023E0E07801F0A0FBF5E7A0780328DB
:103FC00002D0022800D0FFDF207880BB022F08D06B
:103FD0005FF00500FFF797FAA078032840D0A5709E
:103FE00095E70420F6E7A078042800D0FFDF022040
:103FF00004E0A078042800D0FFDF0120A1688847F2
:10400000FFF75EFF054633E003E0A078042800D008
:10401000FFDFBDE8F04100F08DB8A078042804D09F
:10402000617809B1022800D0FFDF207818B1BDE81F
:10403000F04100F08AB8207920B10620FFF763FA3A
:1040400025710DE0607840B14749E07800F07BF8D9
:1040500000B9FFDF65705AE704E00720FFF753FA65
:10406000A67054E7FFDF52E73DB1012D03D0FFDF1B
:10407000022DF9D14BE70420C0E70320BEE770B55D
:10408000050004D0374CA078052806D101E01020A7
:1040900070BD0820FFF74DFA08B1112070BD3548FA
:1040A00001F06DF9E070202806D0012102F020FB1C
:1040B0000020A560A07070BD032070BD294810B518
:1040C000017809B1112010BD8178052906D0012998
:1040D00006D029B101210170002010BD0F2010BDB4
:1040E00000F033F8F8E770B51E4C0546A07808B12B
:1040F000012809D155B12846FFF783FE40B1287841
:1041000040B1A078012809D00F2070BD102070BDEB
:10411000072070BD2846FFF79EFE03E000212846D9
:10412000FFF7B1FE1049E07800F00DF800B9FFDFAD
:10413000002070BD0B4810B50069FFF78FFCBDE88B
:10414000104001F0A2B801F047BC064810B5C07895
:1041500001F077F900B9FFDF0820FFF7D4F9BDE8D7
:10416000104039E650000020640400203D86010024
:10417000FF1FA107513F00002DE9F04115460E46F3
:104180000446002700F0EBF8A84215D30023412095
:104190000FE000BF94F84220A25CF25494F8421061
:1041A000491CB1FBF0F200FB12115B1C84F84210B9
:1041B000DBB2AB42EED3012700F0DDF83846BDE8B4
:1041C000F081724910B5802081F800047049002008
:1041D00081F8420081F84100433181F8420081F8C2
:1041E0004100433181F8420081F841006948FFF7FE
:1041F000FDFB6848401CFFF7F9FBFFF76FFBBDE8CC
:10420000104000F0B8B840207047614800F0A7B8EF
:104210000A4601465E48AFE7402070475C4843309D
:1042200000F09DB80A46014659484330A4E74021B2
:1042300001700020704710B504465548863000F0E4
:104240008EF82070002010BD0A460146504810B577
:104250008630FFF791FF08B1002010BD42F2070041
:1042600010BD70B50C460646412900D9FFDF4A480B
:104270000068103840B200F054F8C5B20D2000F0CC
:1042800050F8C0B2854201D3012504E0002502E0C8
:104290000DB1FFF777FB224631463D48FFF76CFF33
:1042A0000028F5D070BD2DE9F0413A4F00250646B3
:1042B00017F1040757F82540204600F041F810B3E5
:1042C0006D1CEDB2032DF5D33148433000F038F8C2
:1042D000002825D02E4800F033F8002820D02C48A4
:1042E000863000F02DF800281AD0FFF710FB29487F
:1042F000FFF784FBB0F5005F00D0FFDFBDE8F041C1
:104300002448FFF791BB94F841004121265414F84A
:10431000410F401CB0FBF1F201FB12002070D3E70B
:104320004DE7002804DB00F1E02090F8000405E0F0
:1043300000F00F0000F1E02090F8140D40097047E4
:1043400010F8411F4122491CB1FBF2F302FB13118B
:104350004078814201D1012070470020704710F859
:10436000411F4078814201D3081A02E0C0F14100A8
:104370000844C0B2704710B50648FFF73FFB00285D
:1043800003D1BDE81040FFF7ADBA10BD0DE000E06D
:10439000740400206400002004ED00E04FF0E021F0
:1043A0004FF00070C1F8800101F5C071BFF34F8F6D
:1043B000BFF36F8FC1F80001424B802283F80024C5
:1043C00041F8800C704700B5024606203E4903E0E4
:1043D00001EBC0031B792BB1401EC0B2F8D2FFDF46
:1043E000FF2000BD41F8302001EBC00100224A71DE
:1043F0008A7101220A7100BD334A002102EBC0001C
:104400000171704710B50446062800D3FFDF2E481F
:1044100000EBC4042079012800D0FFDF6079A17986
:10442000401CC0B2814200D060714FF0E0214FF0DB
:104430000070C1F8000210BD70B50625224E234C55
:1044400016E0217806EBC1000279012A08D14279F1
:1044500083799A4204D04279827156F831008047BC
:104460002078401CC0B22070062801D300202070A4
:104470006D1EEDB2E5D270BD154810B50468144943
:1044800014480831086004F064FD41780B230122D0
:10449000002004F054FD0B4890F800044009042863
:1044A00000D0FFDFFFF7C8FF0948001D046004F0DB
:1044B00050FD417810230122BDE81040104604F061
:1044C0003EBD000019E000E040050020740000201F
:1044D000100502400100000170B5154D2878401C00
:1044E000C4B26878844202D000F0DBFA2C7070BD50
:1044F0002DE9F0410E4C4FF0E02600BF00F0C6FA67
:104500002AF022FE40BF20BF677820786070D6F87E
:104510000052FEF7FDFA854305D1D6F8040210B922
:104520002078B842EAD000F0ACFA0020BDE8F08173
:10453000750000202DE9F04101264FF0E022310303
:104540004FF000084046C2F88011BFF34F8FBFF311
:104550006F8F204CC4F800010C2000F02EF81E4D87
:104560002868C04340F30017286840F01000286016
:10457000C4F8046326607F1C02E000BF2AF0E4FD5B
:10458000D4F800010028F9D01FB9286820F01000E5
:104590002860124805686660C4F80863C4F80081A2
:1045A0000C2000F00AF82846BDE8F08110B504465A
:1045B000FFF7C0FF2060002010BD002809DB00F0DD
:1045C0001F02012191404009800000F1E020C0F865
:1045D0008012704700C0004010ED00E008C50040A8
:1045E0002DE9F047FF4C0646FF21A06800EB0612BC
:1045F00011702178FF2910D04FF0080909EB011143
:1046000009EB06174158C05900F0F4F9002807DDFE
:10461000A168207801EB061108702670BDE8F087CC
:1046200094F8008045460DE0A06809EB051141585B
:10463000C05900F0DFF9002806DCA068A84600EBAE
:1046400008100578FF2DEFD1A06800EB061100EBF4
:1046500008100D700670E1E7F0B5E24B044600204B
:1046600001259A680C269B780CE000BF05EB00172B
:10467000D75DA74204D106EB0017D7598F4204D06B
:10468000401CC0B28342F1D8FF20F0BD70B501F0EC
:104690006CFED44C08252278A16805EB02128958DB
:1046A00000F0A8F9012808DD2178A06805EB0111C8
:1046B0004058BDE8704001F04FBE01F0BEFCBDE8BF
:1046C0007040FFF79FBE2DE9F041C64C257801F000
:1046D0004CFEFF2D6ED04FF00808A26808EB0516BF
:1046E000915900F087F90228A06801DD80595DE04A
:1046F00000EB051109782170022101EB0511425CE4
:104700005AB1521E4254815901F5800121F07F4176
:1047100081512846FFF764FF34E00423012203EBB4
:10472000051302EB051250F803C0875CBCF1000FC3
:1047300010D0BCF5007F10D9CCF3080250F806C0A9
:104740000CEB423C2CF07F4C40F806C0C3589A1A40
:10475000520A09E0FF2181540AE0825902EB4C32EF
:1047600022F07F428251002242542846FFF738FF50
:104770000C21A06801EB05114158E06850F8272092
:10478000384690472078FF2814D001F0EEFD2278BB
:10479000A16808EB02124546895800F02BF9012860
:1047A00093DD2178A06805EB01114058BDE8F04188
:1047B00001F0D2BDBDE8F081F0B51D4614460E46AD
:1047C0000746FF2B00D3FFDFA00700D0FFDF85489F
:1047D000FF210022C0E90247C570067101704270D6
:1047E00082701046012204E002EB0013401CE154E9
:1047F000C0B2A842F8D3F0BD70B57A4C06466578D1
:104800002079854200D3FFDFE06840F825606078BA
:10481000401C6070284670BD2DE9FF5F1D468B4629
:104820000746FF2401F0A1FDDFF8B891064699F88C
:104830000100B84200D8FFDF00214FF001084FF01F
:104840000C0A99F80220D9F808000EE008EB0113D1
:10485000C35CFF2B0ED0BB4205D10AEB011350F80D
:1048600003C0DC450CD0491CC9B28A42EED8FF2CEB
:1048700002D00DE00C46F6E799F803108A4203D106
:10488000FF2004B0BDE8F09F1446521C89F80220B6
:1048900008EB04110AEB0412475440F802B004215B
:1048A000029B0022012B01EB04110CD040F80120E7
:1048B0004FF4007808234FF0020C454513D9E90561
:1048C000C90D02D002E04550F2E7414606EB413205
:1048D00003EB041322F07F42C250691A0CEB04125E
:1048E000490A81540BE005B9012506EB453103EB7C
:1048F000041321F07F41C1500CEB0411425499F88C
:1049000000502046FFF76CFE99F80000A84201D045
:10491000FFF7BCFE3846B4E770B50C46054601F01B
:1049200024FD064621462846FFF796FE0446FF284A
:104930001AD02C4D082101EB0411A86841583046CB
:1049400000F058F800F58050C11700EBD14040133B
:104950000221AA6801EB0411515C09B100EB41206E
:10496000002800DC012070BD002070BD2DE9F0475B
:1049700088468146FFF770FE0746FF281BD0194D79
:104980002E78A8683146344605E0BC4206D026465B
:1049900000EB06121478FF2CF7D10CE0FF2C0AD0A4
:1049A000A6420CD100EB011000782870FF2804D03B
:1049B000FFF76CFE03E0002030E601F0D3FC414637
:1049C0004846FFF7A9FF0123A968024603EB041339
:1049D000FF20C854A878401EB84200D1A87001EB4F
:1049E000041001E07005002001EB0611007808704A
:1049F000104613E6081A0002C11700EB11600012FE
:104A00007047000010B5202000F07FF8202000F053
:104A10008DF84D49202081F80004FEF777F84B49C6
:104A200008604B48D0F8041341F00101C0F80413AA
:104A3000D0F8041341F08071C0F8041342490120FA
:104A40001C39C1F8000110BD10B5202000F05DF840
:104A50003E480021C8380160001D01603D4A481EE3
:104A600010603B4AC2F80803384B1960C2F80001D5
:104A7000C2F8600138490860BDE81040202000F00D
:104A800055B834493548091F0860704731493348E3
:104A9000086070472D48C8380160001D521E026032
:104AA00070472C4901200860BFF34F8F70472DE9F4
:104AB000F0412849D0F8188028480860244CD4F8E0
:104AC00000010025244E6F1E28B1404600F0B6F8C4
:104AD00040B9002111E0D4F8600198B1404600F0DF
:104AE000ADF848B1C4F80051C4F860513760BDE872
:104AF000F041202000F01AB831684046BDE8F0418E
:104B00002AF02CBBFFDFBDE8F08100280DDB00F0B0
:104B10001F02012191404009800000F1E020C0F80F
:104B20008011BFF34F8FBFF36F8F7047002809DBF1
:104B300000F01F02012191404009800000F1E020B7
:104B4000C0F880127047000020E000E0C806024074
:104B5000000002401805024000040240010000016C
:104B60004FF08050D0F830010A2801D00020704763
:104B70000120704700B5FFF7F3FF20B14FF08050E0
:104B8000D0F8340108B1002000BD012000BD4FF075
:104B90008050D0F83001062803D0401C01D00020FE
:104BA0007047012070474FF08050D0F830010D2839
:104BB00001D000207047012070474FF08050D0F89E
:104BC0003001082801D000207047012070474FF0C5
:104BD0008050D0F83001102801D00020704701200B
:104BE000704700B5FFF7F3FF30B9FFF7DCFF18B9E6
:104BF000FFF7E3FF002800D0012000BD00B5FFF75C
:104C0000C6FF38B14FF08050D0F83401062803D3E6
:104C1000401C01D0002000BD012000BD00B5FFF701
:104C2000B6FF48B14FF08050D0F83401062803D3C6
:104C3000401C01D0012000BD002000BD3249884247
:104C400001D2012070470020704770B50446A0F5DE
:104C500000002E4EB0F1786F02D23444A4F5000467
:104C60002948844201D2012500E0002500F043F8E4
:104C700048B125B9B44204D32548006808E00120B2
:104C800070BD002070BD002DF9D1B442F9D3214888
:104C90008442F6D2F3E710B50446A0F50000B0F167
:104CA000786F03D219480444A4F5000400F023F8F7
:104CB0004FF0804130B11648006804E08C4204D2C5
:104CC000012003E013488442F8D2002080F0010064
:104CD00010BD10B520B1FFF7DEFF08B1012010BDF7
:104CE000002010BD10B520B1FFF7AFFF08B10120C3
:104CF00010BD002010BD084808490068884201D155
:104D000001207047002070470000030000000020D1
:104D10009000002008000020AC000020BEBAFECAAF
:104D20002DE9F0410746FD48904600250C4600EB72
:104D30008816072F07D2DFE807F0070707070404E4
:104D40000400012500E0FFDF06F81470002D08BF05
:104D5000BDE8F081F24800EB880090F82710202988
:104D60000EBF80F8264006EB41014C70202106EB77
:104D70004402517080F82740BDE8F08130B50D46FF
:104D8000E84A44190021101A71EB010038BFFFDF17
:104D9000E5488542C8BFFFDFE4488542B8BFFFDF72
:104DA000E3488442A8BFE34804DA002CAABF2046A7
:104DB000DF4830BD201830BD2DE9F05FD84D95F8A3
:104DC0002D6005EB860090F82640202C08BFBDE83A
:104DD000F09FDFF864A3DFF84493A9F5007B09EBAB
:104DE0008618072718F8140001280AD0042808BFDD
:104DF000022706D0052808BF032702D0062818BFBF
:104E0000FFDFBAF1000F18BFAFF30080EFF310809F
:104E100000F0010072B608EB44014A7805EB860108
:104E200081F8262091F82720A24204BF202281F891
:104E30002720A0B1324621460120FFF771FF0BEB7E
:104E40000410394602682046904795F82D6005EB1E
:104E5000860090F82640202CC1D1BDE8F09FB748CD
:104E6000002818BFAFF3008062B6E3E710B5AC4C82
:104E7000202184F8251084F8261084F827100020BB
:104E800084F8280084F82D0084F82E10411EA160BB
:104E9000206084F8200084F8210020776077A077D4
:104EA000A74984F82F0084F8240008704870A4F102
:104EB00082011022887001F8040F521EFAD10120DD
:104EC00001F0B2FD002001F0AFFD012084F82200C6
:104ED000FFF764FA9B48FFF776FA9B4C20709B48DB
:104EE000FFF771FA6070BDE8104001F02BBD10B5FE
:104EF00001F059FD944C2078FFF77EFA6078FFF7B7
:104F00007BFA874C94F82400002808BF10BDFEF7F8
:104F1000B6F8002084F8240010BD2020704700203F
:104F200001F072BD70B50546012000FA05F40E4689
:104F3000002A08BF86480CD0002001F065FDE9007A
:104F400001F1804101F5F831C1F81005C1F814658F
:104F50008048046070BD2DE9F04F8146704889B0EB
:104F600000EB8908A0F5207798F82550202D3CD03B
:104F70002C4601F006FE07EB0412774E516892684A
:104F8000091A101A21F07F4120F07F40012904D333
:104F9000B1F5800F01D286421BD2604800EB891B1D
:104FA000A2460BEB4A004478202C12D001F0E9FD18
:104FB00007EB04114A688968121A081A22F07F4226
:104FC00020F07F40012AEBD3B2F5800FE8D2864271
:104FD000E6D3AC4209D04B4652462021042001F0D2
:104FE000AFFB09B00020BDE8F08F5C48002818BF77
:104FF000AFF3008001F0C5FD494C94F82F1069B162
:10500000E168421C511A0902CA1701EB1261091228
:105010000029C2BF002009B0BDE8F08F0646CDF8D8
:10502000208098F82500202835D04FF000084FF058
:10503000FF3107EB001BCDF800800291DBE9010195
:10504000DBF80C200592CDE903014548B0F89C122D
:10505000ADF81C1090F89E028DF81E009DF815000A
:1050600000280CBF4FF0040A4FF0020A3D4951F8E6
:105070002070039907EB0A02114421F07F4101914E
:10508000002F14BF022100218DF81810022818BF2C
:10509000012815D035E04FF0010001F0C5FC0020DB
:1050A00001F0C2FC01F0A6FC94F8240020B1FDF749
:1050B000E6FF002084F82400002084F82F00D6E0CA
:1050C00003989DF81C103844801B801C20F07F4002
:1050D000002918BF0221353181420BD203208DF8FF
:1050E00015000398C7F13201401A20F07F403227A3
:1050F00003903AE094F8240018B9FEF7C0FB0028AA
:105100007DD0322F31D247B194F8240060BBFDF737
:105110008DFF012084F824002EE026E08007002087
:1051200000080020FF7F841E0020A10700E05EF839
:105130000080841E00807BE1000000000000000071
:1051400079000020C746000077000020B94D00001C
:1051500008F5014004F50140FFFF3F00000000009A
:105160008005002034F4020006E094F8240018B111
:10517000FDF785FF84F82480FE4A1178D1B3527878
:105180000020D21B9DF818C0039F012916BF0329D8
:10519000012300238DF81E30002A04DDBA1A039281
:1051A00001228DF818209DF81C20002A18BF02202B
:1051B000039ADDF810E022F07F420392921BEE4B3F
:1051C00022F07F42AEEB060626F07F46904298BF63
:1051D000B2F5800F01D2B3420CD29DF81D00002819
:1051E00008BF032947D08DF81C8003978DF818C09D
:1051F0008DF81E809DF8180060B1039800E03AE039
:1052000000EB0A014FF001034FF00002184601F0D5
:1052100054FC02E0012001F007FC9BF90C20012363
:105220000020019901F049FC9BF80F0010F0010FDC
:1052300018BF01F0C8FD012084F82F00089880F8FD
:1052400028809DE80E10CD48C0F88012C0F8842256
:10525000C0F88832C0F88CC204AD95E80E10C0F8D2
:105260009012C0F89422C0F89832C0F89CC209B0DD
:105270000120BDE8F08F4B462A462021042001F092
:105280005FFA09B00020BDE8F08F2DE9F041BC4C79
:10529000256901F076FC401B0002C11700EB11608C
:1052A000001258BFFFDF94F82200002818BFFFDF6C
:1052B000012784F8227094F82E00202808BFFFDF11
:1052C00094F82E60202084F82E00002584F82F50BA
:1052D00084F8205084F82150A648256000780228E0
:1052E00016BF0328012000202077A068B0F1FF3FFF
:1052F00005D04FF0FF30A060012001F095FB0020A9
:1053000001F092FB01F0E8FC01F0DDFC01F072FB22
:10531000FEF728FD9B48056005604FF0E0214FF443
:105320000040C1F8800201F073FD94F82D804046E2
:10533000FFF711FE0028FAD0934800EB881010F810
:105340001600022804D1424631460620FFF7E8FC49
:1053500084F8237004EB880090F82600202803D0FE
:105360008A484078FFF74EF8207F002808BFBDE844
:10537000F08101F09AFC25776577BDE8F08103465E
:105380007F4810B590F82D200024803800EB821063
:1053900010F8141029B1611CCCB2202CF8D32020B5
:1053A00010BD7648002100EB04100360C173214654
:1053B0000120FFF7B5FC204610BD012804D00328CA
:1053C00008BF002934D000E079B36D4A92F82D303F
:1053D000DFF8B4C14FF000020CEB831313F812C0D6
:1053E000BCF1000F01D008207047521CD2B2202A15
:1053F000F4D3604A002812BF0228002151700BD05C
:10540000072915D2DFE801F01404060B0D0F120076
:105410001B2100E03A215170107000207047582184
:10542000F9E77721F7E79621F5E701E0B521F2E703
:10543000072070474F4810B5407801F062FC80B2F9
:1054400010BD10B5202811D24D4991F82D30A1F191
:10545000800202EB831C1CF810303BB191F82D3018
:1054600002EB831212F81020012A01D0002010BD97
:1054700091F82D2001460020FFF752FC012010BDBD
:1054800010B501F07EFBBDE8104001F03ABC2DE9FB
:10549000F04F3B4A82B002EB810E20239EF825207C
:1054A000DFF8ECB0354C4FF000096F4601AD8DF8D8
:1054B0000030202A1CBF344B03EB811A30D000BFD0
:1054C00004EB021303F1040C9B680668F31A1B0239
:1054D0004FEAE37803EB18631B1221D4437ACBB174
:1054E0009CF80980B8F1000F14D15BF82330DCF888
:1054F00000C03344DBF800609B1CB4440CF1040C86
:10550000A3EB0C031B024FEAE37C03EB1C631B12AF
:10551000322B05DB3A700AEB42025278202ACFD1B7
:105520003B782B70202A1CBFDFF85CC00CEB811885
:105530004FD000BF04EB0213D0F804C05F681E1DFB
:10554000A7EB0C0C4FEA0C2C4FEAEC7A0CEB1A6C24
:105550005FEA2C2C32D496F809C0BCF1000F38D089
:10556000467A002E35D15BF82CC0BC440CF1020603
:1055700010E0000079000020FFFF3F0080050020C0
:105580000008002000F50040800700207700002080
:1055900034F40200D0F800C0DBF80070BC440CF119
:1055A000040CA6EB0C0C4FEA0C2C4FEAEC760CEB3F
:1055B000166C4FEA2C2CBCF1320F0ADA2A709B7B56
:1055C00090F80AC0634505D908EB42025278202AB8
:1055D000B0D18EE09DF80420D0E900C304EB0212A4
:1055E000A3EB0C0392684FF0010922F07F4C1A44A0
:1055F00022F07F42C0E900C29EF8252020236F469A
:105600008DF80030202A1CBFFD4B03EB811A2FD0F0
:1056100004EB021303F1040C9B680668F31A1B02E7
:105620004FEAE37803EB18631B1221D4437ACBB122
:105630009CF80980B8F1000F14D15BF82330DCF836
:1056400000C03344DBF800609B1CB4440CF1040C34
:10565000A3EB0C031B024FEAE37C03EB1C631B125E
:10566000322B05DB3A700AEB42025278202ACFD166
:105670003B782B70202A1CBFDFF884C30CEB811A07
:1056800037D000BF04EB02164368776806F1040CBC
:10569000FB1A1B024FEAE37803EB18631B121CD4BE
:1056A0009CF809302BB390F809C0BCF1000F20D151
:1056B0005BF82330D0F800C03B44DBF800709B1C43
:1056C000BC440CF1040CA3EB0C031B024FEAE37C7B
:1056D00003EB1C631B12322B0BDA2A70B37B90F89E
:1056E0000AC063457FF676AF0AEB42025278202A61
:1056F000C8D102B04846BDE8F08F70B5C149C24A72
:1057000001EB001454F8041F607A002852F820209E
:1057100011440CBF04200220084420F07F4001F017
:10572000F0FA94F90850B94A44190021101A71EBA3
:10573000010038BFFFDFB6488542C8BFFFDFB5486C
:105740008542B8BFFFDFB4488442A8BFB34803DA3C
:10575000002CB8BFB04800DA2418204670BD2DE9EF
:10576000F04F0546AE4887B00068C005C00D11D0A7
:10577000103840B20028B8BF00F00F0000F1E02060
:10578000ACBF90F8000490F8140D400908BF4FF02A
:10579000010A01D04FF0000A2878002804BFA14E6A
:1057A000A14F40F0D58027B1002140F2FF40AFF378
:1057B000008096F82D80002086F82300814627B1CE
:1057C000002140F20450AFF30080BAF1000F1FD166
:1057D0004446012020EA04088948402200EB841155
:1057E00000EB881029F0C7FB27B100214FF493602C
:1057F000AFF3008006EB840106EB8800D1F825109A
:10580000C0F8251027B1002140F29C40AFF3008082
:1058100027B1002140F20C50AFF3008001F0B1F944
:1058200004462878EB46002868798DF80A00287924
:105830008DF809007ED0297900225846AB6801F026
:1058400039F896F82E0020281CBF3069401D78D00A
:10585000DDE9002120F07F40891A0090084420F003
:105860007F40019041465846FFF711FED5E90232CC
:10587000297903A801F01EF80098019A001B121B59
:1058800020F07F40049922F07F42B0F5800F01D2D2
:10589000914209D2DDE90010401A204424F07F41F2
:1058A00020F07F40CDE9001027B1002140F21250D6
:1058B000AFF3008096F82E00202814D030690099AC
:1058C000091A0902CA1701EB126109120BD5DDE9A9
:1058D0000021891A20F07F42084420F07F40CDE962
:1058E00000204FF0010927B1002140F21C50AFF316
:1058F000008096F8230000287FF455AF27B10021DF
:1059000040F22250AFF3008001F03BF90099019B77
:10591000091A181A454A21F07F4120F07F40B1F55D
:10592000800F15D2824213D3BAF1000F1AD113E0BF
:1059300000E006E0D5E902232979584600F0BAFFD5
:10594000B2E73B484078052838BF052020447FE770
:1059500007B00020BDE8F08F41466846FFF797FD8D
:1059600049EA0009B9F1000F2CD09DF80900264A38
:105970000099002852F8202011440CBF0420022076
:10598000084420F07F4001F0BCF99DF908601F4AEF
:1059900084190021101A71EB010038BFFFDF1C4889
:1059A0008642C8BFFFDF1B488642B8BFFFDF1A48E8
:1059B0008442A8BF194803DA002CB8BF164800DAA1
:1059C0002418AC6027B1002140F23550AFF30080BD
:1059D00007B00120BDE8F08F2DE9F34F104887B0E4
:1059E000884600680F4DC005C00D2AD0103840B25F
:1059F0000028B8BF00F00F0000F1E0201AE000001E
:105A0000800700208005002034F40200FF7F841E00
:105A10000020A10700E05EF80080841E00807BE18A
:105A200004ED00E00008002000000000FFFF3F0040
:105A300079000020ACBF90F8000490F8140D4009E4
:105A40002AD098F800004FF0000B00281CBF012856
:105A5000FFDFFE4C2CB14FF0000140F2F750AFF3E6
:105A60000080FB4907984FF0010A01EB00100090FD
:105A700024B1002140F2FF50AFF30080BAF1000FD3
:105A800017D000BF95F82D604FF0000985F82390DE
:105A9000BBF1000F14D03DE095F82E004FF0010B44
:105AA000202808BFFFDF98F80000002818BFFFDF9C
:105AB000CFE7E848002818BFAFF3008062B6E1E7FF
:105AC0003746012020EA0706E348402200EB871111
:105AD00000EB861029F04FFA24B100214FF49360B7
:105AE000AFF3008005EB870105EB8600D1F82510A8
:105AF000C0F8251024B1002140F29C40AFF3008093
:105B000024B1002140F20960AFF3008095F8230032
:105B10000028ADD124B1002140F21360AFF3008022
:105B200001F02FF8074698F800000DF1040A00284C
:105B300098F805008DF80E0098F804008DF80D0017
:105B400058D098F8041000225046D8F8083000F0D9
:105B5000B1FE95F82E0020281CBF2869401D51D0A9
:105B6000DDE9012120F07F40891A0190084420F0EE
:105B70007F40029031465046FFF789FCD8E9023257
:105B8000BA4698F8041004A800F094FE0198029A0E
:105B9000A0EB0A0020F07F40A2EB0A02059922F058
:105BA0007F42B0F5800F01D2914209D2DDE9012197
:105BB000891A781827F07F4220F07F40CDE9012034
:105BC0000098C07B00F001008DF80F0024B1002187
:105BD00040F21D60AFF300809F4A3946DDF81CA0FB
:105BE00002EB861701A817F81A20012A18BF022A0B
:105BF0000FD04BE0D8E9022398F80410504600F08B
:105C000059FEDDE795484078052838BF052038441F
:105C1000A6E7019ADDF808C0521A914B22F07F42A4
:105C2000ACEB010121F07F41012A6AD3B2F5800F6C
:105C300067D28B4265D34FF0010905AB04AA314608
:105C400000F0BAFD002864D09DF810109DF81420D3
:105C500033468A4261D0052000F072FD07EB4A010D
:105C600048709DF81000202803BF05EB860080F8DF
:105C700025A080F8289007EB400018BF80F801A00D
:105C8000324651465FF00300FFF74AF805EB860005
:105C900090F8287024B1002140F22460AFF3008016
:105CA0007048002818BFAFF30080EFF3108000F0B9
:105CB000010A72B624B1002140F22A60AFF30080DD
:105CC00095F8230000287FF4D3AE24B1002140F2E0
:105CD0003260AFF300809DE80F00B9F1000FC360A0
:105CE000C0E9011240D024B1002140F23F60AFF37F
:105CF000008037EA0B0029D095F82E00202816D016
:105D000024E0324651460420FFF70AF84FF001091B
:105D1000BCE7324651460420B6E7202919BF07EBFD
:105D20004100407805EB860090F8250096E724B105
:105D3000002140F24460AFF300803046FFF70BF9DA
:105D400020B998F80000E8B3012849D024B1002117
:105D500040F26160AFF3008085F82D60012085F886
:105D6000230000BF4FF0010924B1002140F26A6016
:105D7000AFF30080BAF1000F3BD024B1002140F214
:105D80006E60AFF30080B9F1000F11D095F82D00CF
:105D900005EB800090F82600202809D024B10021CE
:105DA00040F27560AFF300802F484078FEF72AFB81
:105DB00024B1002140F27A60AFF3008009B0484678
:105DC000BDE8F08FFFE724B1002140F24C60AFF353
:105DD000008095F82D2004200799FEF7A1FFC1E768
:105DE000002C3FF445AE002140F25760AFF3008035
:105DF0003EE61848002818BFAFF3008062B6BCE743
:105E00002DE9F14F194D8CB095F82D000020099027
:105E100001200E4CA5F180074FF0000B8246089040
:105E200024B100214FF4D160AFF30080089860B135
:105E300085F823B024B1002140F28D60AFF30080DB
:105E400095F82D802AEA080612E03AE000000000EA
:105E5000800500200000000080070020790000205D
:105E6000FFFF3F0000000000770000200008002036
:105E700007EB861007EB88118146402229F07BF85A
:105E800024B100214FF49360AFF3008005EB86004E
:105E900005EB88010090D1F82510C0F8251024B139
:105EA000002140F29C40AFF3008095F8230078B1C8
:105EB000002C1CBF002140F29360B1D0AFF30080F2
:105EC000AEE7FE48002818BFAFF3008062B6AFE728
:105ED00024B1002140F29760AFF300800C9819F8CC
:105EE000100003286DD1DDF80080CDF818800C99E2
:105EF00098F82500884214BF4FF000094FF00109BF
:105F000008F1250C8646202207EB861303E00246A3
:105F100003EB42004078884202D020280AD0F6E7FE
:105F2000202807D0864507D103EB4E0040788CF837
:105F3000000007E058460CE003EB400003EB420191
:105F40004078487024B1002140F23540AFF3008022
:105F5000504610EA090F1CBF88F828A085F81EB02B
:105F600078B324B1002140F29C60AFF30080324648
:105F700001200C99FEF7D4FE069890F8288024B1F1
:105F8000002140F2A760AFF30080CD48002818BF81
:105F9000AFF30080EFF3108000F0010072B60890BC
:105FA00024B1002140F2AC60AFF3008095F82300EB
:105FB00040B1002C1CBF00214FF4D6603FF430AF3D
:105FC0007CE716E0B8F1000F07D095F82E002028E6
:105FD00003D13046FEF7BFFFE8B124B1002140F203
